:100000000C94B4000C94E5000C94E5000C94E5000D
:100010000C94E5000C94E5000C94E5000C94E500CC
:100020000C94E5000C94E5000C94E5000C94E500BC
:100030000C94E5000C94E5000C94E5000C94E500AC
:100040000C94E5000C94E5000C94E5000C94E5009C
:100050000C94E5000C94E5000C94E5000C94DC0D88
:100060000C94E5000C94B00E0C94860E0C94E500F4
:100070000C94E5000C94E5000C94E5000C94E5006C
:100080000C94E5000C94E5000C94E5000C94E5005C
:100090000C94500E0C94260E0C94E5000C94E50084
:1000A0000C94E5000C94E5000C94E5000C94E5003C
:1000B0000C94E5000C94E5000C94E5000C94E5002C
:1000C0000C94E5000C94E5000C94E5000C94E5001C
:1000D0000C94E5000C94E5000C94E5000C94E5000C
:1000E0000C94E5000C943B010C944A010C94AE0175
:1000F0000C945E010C940E010C94E60E0C94FB0122
:100100000C946C01CDCCCC3D0AD7233C17B7D13829
:1001100077CC2B329595E6241FB14F0A0000204181
:100120000000C84200401C4620BCBE4CCA1B0E5AF0
:10013000AEC59D74646573657269616C697A654A60
:10014000736F6E2829206661696C65642077697415
:100150006820746865206572726F72206D657373B4
:100160006167653A2000E60E11241FBECFEFD1E291
:10017000DEBFCDBF00E00CBF24E0A4E1B3E001C0CE
:100180001D92AB35B207E1F713E0A0E0B2E0EAEE72
:10019000FBE200E00BBF02C007900D92A431B10753
:1001A000D9F710E0C4EBD0E000E006C021970109C8
:1001B000802FFE010E94D513C33BD10780E00807C2
:1001C000A9F70E94390F0C94F3150C940000FC0160
:1001D000A089B18982E08C93A485B5851C92A685FF
:1001E000B78580E18C93108EA489B58986E08C93C5
:1001F000A289B3898C9180618C93A289B3898C91F7
:1002000088608C93A289B3898C9180688C930288D2
:10021000F389E02D80818F7D80830895AF92BF9216
:10022000CF92DF92EF92FF920F931F93CF93DF93C2
:100230006C017B018B01040F151FEB015E01AE18F1
:10024000BF08C017D10759F06991D601ED91FC9113
:100250000190F081E02DC6011995892B79F7C50130
:10026000DF91CF911F910F91FF90EF90DF90CF9092
:10027000BF90AF900895FC01538D448D252F30E041
:10028000842F90E0821B930B541710F0CF960895A3
:1002900001970895FC01918D828D981761F0A28DD0
:1002A000AE0FBF2FB11D5D968C91928D9F5F9F7396
:1002B000928F90E008958FEF9FEF0895FC01918D4C
:1002C000828D981731F0828DE80FF11D858D90E0B9
:1002D00008958FEF9FEF0895FC01918D228D892F56
:1002E00090E0805C9F4F821B91098F73992708953E
:1002F0008DE193E00E946C0121E0892B09F420E05C
:10030000822F08958AEB93E00E946C0121E0892BF3
:1003100009F420E0822F0895FC01A48DA80FB92FC5
:10032000B11DA35ABF4F2C91848D90E001968F731D
:100330009927848FA689B7892C93A089B1898C913C
:10034000837080648C93938D848D981306C002888B
:10035000F389E02D80818F7D80830895EF92FF9255
:100360000F931F93CF93DF93EC0181E0888F9B8DD8
:100370008C8D98131AC0E889F989808185FF15C092
:100380009FB7F894EE89FF896083E889F9898081B5
:100390008370806480839FBF81E090E0DF91CF9184
:1003A0001F910F91FF90EF900895F62E0B8D10E0A6
:1003B0000F5F1F4F0F731127E02E8C8D8E110CC015
:1003C0000FB607FCFACFE889F989808185FFF5CF60
:1003D000CE010E948C01F1CFEB8DEC0FFD2FF11DB2
:1003E000E35AFF4FF0829FB7F8940B8FEA89FB899D
:1003F00080818062CFCFCF93DF93EC01888D8823FB
:10040000B9F0AA89BB89E889F9898C9185FD03C077
:10041000808186FD0DC00FB607FCF7CF8C9185FF5C
:10042000F2CF808185FFEDCFCE010E948C01E9CF14
:10043000DF91CF91089580E090E0892B29F00E9410
:10044000820181110E94000080E090E0892B29F058
:100450000E94780181110E94000080E090E0892BC9
:1004600049F080E090E0892B29F00E940000811182
:100470000E94000080E090E0892B49F080E090E04D
:10048000892B29F00E94000081110C94000008952E
:10049000982F80336CF08A3324F08F3524F08B371B
:1004A00024F481E0089581341CF081E09B350CF048
:1004B00080E008950F931F93CF93DF93EC018C8519
:1004C000811140C009851A852FB7F89480911903CE
:1004D00090911A03A0911B03B0911C032FBFF80148
:1004E00080879187A287B387D801ED91FC91028420
:1004F000F385E02DC801199597FF2AC02FB7F8940E
:100500008091190390911A03A0911B03B0911C03D1
:100510002FBFF8014085518562857385841B950B3B
:10052000A60BB70B448155816681778184179507A7
:10053000A607B707C8F28FEF9FEF97FD80E08B8784
:1005400081E08C878B85DF91CF911F910F9108956A
:100550009927F3CF1F93CF93DF93EC01162F0E94BF
:100560005A02811306C01C8681E0DF91CF911F9152
:10057000089580E0FACF0F931F93CF93DF938C0100
:10058000EB018991882369F0C8010E945A028823EF
:1005900079F0FE013197908198130DC0F80114860F
:1005A000F0CF90E080E0DF91CF911F910F910895FF
:1005B00082E090E0F8CF83E090E0F5CFCF93DF9337
:1005C000EC01CE010E945A028B304CF489305CF46D
:1005D000882359F081E0888790E080E00BC08D305F
:1005E00011F08032B9F71C86ECCF8885811105C0E7
:1005F00081E090E0DF91CF91089582E090E0FACF22
:10060000FC0124813581A9014F5F5F4F868197816D
:100610004817590748F48281938155834483FC012C
:10062000E20FF31F608308950190F081E02D81E0D7
:10063000808708959F92AF92BF92CF92DF92EF9200
:10064000FF920F931F93CF93DF9300D01F921F92BF
:10065000CDB7DEB78C010E945A02D82ED8011C9665
:100660001C92F12CE12C60EFC62EC8010E945A02A8
:10067000F8011486D81609F4B4C0811113C082E0C1
:1006800090E00F900F900F900F900F90DF91CF910F
:100690001F910F91FF90EF90DF90CF90BF90AF90A0
:1006A0009F9008958C3509F09AC0C8010E945A02A3
:1006B000882329F3E4E2F2E0853709F084C0D80109
:1006C0001C961C9254E0952EB12CA12CC8010E94BE
:1006D0005A028823A1F2813434F48053803130F0FF
:1006E00083E090E0CECF8F7D8753F8CF44E0AA0C13
:1006F000BB1C4A95E1F7A82AF80114869A94911038
:10070000E5CFC501985D8115944020F47501F3E0B3
:10071000FF22ABCFC5019C5D81159440A8F483E016
:10072000B822B701762F6627770F770F6A297B29C2
:1007300090E080E00196603871058105910540F4F4
:10074000C8010E94000391CFB50190E080E0F3CF93
:100750001982262F2F7320682A8326E09695879585
:10076000779567952A95D1F76032710580F4606CB2
:100770006B835E01A4E0AA0EB11CD5016E915D01F0
:10078000662309F472CFC8010E940003F6CF262F1A
:100790002F7320682B8386E0769567958A95E1F71D
:1007A0006031710538F4606E6C835E01B5E0AB0EAC
:1007B000B11CE3CF60686C83CD825E01E6E0AE0ED3
:1007C000B11CDBCF32969081992309F489CF89132C
:1007D000F9CF8181882309F483CFF8011486682F2B
:1007E000AFCF0190F081E02D8085882319F084E05F
:1007F00090E047CF90E080E044CF4F925F926F92BD
:100800007F928F929F92AF92BF92CF92DF92EF92A0
:10081000FF920F931F93CF93DF93EB01DC012C9199
:100820002B32D9F12D32D1F50196FF24F394FC013E
:10083000208130ED320F3A3018F02E3209F042C1EB
:100840008C0160E070E0CB01F801219130ED832E46
:10085000820E39E0381520F16A3949E974078407B6
:1008600049E1940738F5AAE0B0E09B01AC010E9491
:10087000DD12912CB12CA12C24013501409450940F
:1008800060947094461657066806790698F0680DCD
:10089000791D8A1D9B1D8F01D7CF0196F12CC7CFE3
:1008A000211108C0FF20E9F161307105810550E890
:1008B0009507A0F0E12CBAE08B2E912CA12CB12C45
:1008C0006115710530E883079105B0F1A501940128
:1008D0000E94B313CA01B901E394F2CF2C812078AE
:1008E0002A602C839B01AC0188279927DC01821B9D
:1008F000930BA40BB50B88839983AA83BB838F2D9D
:10090000DF91CF911F910F91FF90EF90DF90CF90EB
:10091000BF90AF909F908F907F906F905F904F901F
:1009200008952C81207828602C83688379838A83BA
:100930009B83FF24F394E3CFF801D8012D918D011F
:1009400030ED320F3A3010F4E394F6CF2E3201F549
:100950008F010F5F1F4FF8010F5F1F4F2081A0ED28
:10096000DA2ED20EB9E0BD1598F06C3CECEC7E07A7
:10097000ECE08E07910578F7AAE0B0E09B01AC01AE
:100980000E94DD126D0D711D811D911DEA94E3CF52
:1009900020812F7D10E000E0253409F05BC021812B
:1009A0002D32D1F53296CC24C394DF0110E000E063
:1009B0002E2D0E2C000C330B5AE0B52EFD01DD90D0
:1009C00040ED4D0D4A3008F040C0B09EA001B19EF0
:1009D000500D11240D2DDD0C110B00531109040FC6
:1009E000151FA801420F531F473251053CF38C815C
:1009F000CC20C9F040E050E060E070E8F11003C0A6
:100A000040E050E0BA0180788C608C834883598341
:100A10006A837B83FC2C73CF2B3219F03196C12C67
:100A2000C4CF3296FCCF40E050E060E87FEFF11099
:100A300004C040E050E060E87FE780788C608C8301
:100A4000488359836A837B8374CFCC2019F0119536
:100A5000019511092081211135C00E0D111DE7FCF2
:100A60001A950E94BE113CE1C32E31E0D32E101620
:100A700011063CF011950195110944E0C42E41E0A6
:100A8000D42EE12C0115110591F000FF0CC024E0DB
:100A9000E29EF0011124EC0DFD1D2591359145914B
:100AA00054910E941F1215950795E394EBCFF11016
:100AB00090582C8120782C602C83688379838A83DA
:100AC0009B8337CFF12C1BCFCF92DF92EF92FF9217
:100AD000CF93DF9300D01F921F92CDB7DEB7FC01FA
:100AE00084818F778630B9F028F4843088F590E0DF
:100AF00080E013C08A30E9F08C30B9F18830B9F762
:100B000080819181A281B381811520E89207A1059E
:100B1000B10568F702C0808190E00F900F900F90B0
:100B20000F900F90DF91CF91FF90EF90DF90CF90DB
:100B3000089580819181A281B381AC01BD0150589B
:100B40006F4F7F4F411551056140710580F6E5CF2C
:100B5000808191811D82BE016F5F7F4F0E94FD03E6
:100B6000CE0101960E946405D8CFC080D180E2807A
:100B7000F38020E030E040E057ECC701B6010E946E
:100B80009A1387FDB4CF20E03EEF4FEF56E4C70144
:100B9000B6010E94B91118160CF4A9CFC701B6010D
:100BA0000E946413CB01B9CFCF93DF93DC01EB013B
:100BB000EC81FD818A819B810896E817F90740F452
:100BC00081E08887F0E0E0E0CF01DF91CF910895E8
:100BD0003897FD83EC833097B9F31296CD91DC9171
:100BE0001397209791F0CF018C1B9D0B23E09595D7
:100BF00087952A95E1F78D831396FC93EE931297D0
:100C00001582148217821682DFCF1196FC93EE9321
:100C1000F3CFEF92FF920F931F93CF93DF937C015B
:100C2000DC0112962D913C911397ED91FC91AB0153
:100C3000420F531FEF01C60FD71FC217D307A0F4EF
:100C4000888181110BC0E901CF014C175D0751F07C
:100C50000991DC011D91CD010117B9F38191811139
:100C6000FDCFE8CF309751F4620F731FCB0101968F
:100C7000F70193838283DB011C92F901CF01DF919D
:100C8000CF911F910F91FF90EF900895FC01258166
:100C9000222339F0F8E02F0290011124820F931FD4
:100CA000089590E080E00895CF93DF93EC0184EF06
:100CB00091E00E94DD139C012C503E4F009711F4EF
:100CC00030E020E09A8389839C838B833E832D834D
:100CD00038872F8319861E86DF91CF91089542E0D1
:100CE00050E065E372E08AEB93E00C940E01CF9341
:100CF000DF93FC0144815581608171818AEB93E02F
:100D00000E940E01EC010E946F068C0F9D1FDF9167
:100D1000CF910895CF93DF936115710579F1EB01C0
:100D2000DC018D919C91009759F1DC011696ED91B3
:100D3000FC91DE010D900020E9F71197AD014C1BED
:100D40005D0B30E020E0309749F0DF010D9000208E
:100D5000E9F79D01215031092E1B3F0B2417350760
:100D600051F4DE012C0F3D1F2A173B0749F05D911E
:100D700041915417C9F30E944606D5CF90E080E018
:100D8000DF91CF9108959F92AF92BF92CF92DF9261
:100D9000EF92FF920F931F93CF93DF93EC017B01B0
:100DA000D42E0E94DE028C01892B09F052C0CE01A4
:100DB0000E945A02863609F455C194F5873229F00B
:100DC0008B35D1F1823209F056C1E881F9818281F7
:100DD00093819B838A838481958122813381821BC5
:100DE000930B9F838E831D821C82892B11F481E0DB
:100DF0008087CE010E941A038C01892B51F5AC80AB
:100E0000BD80B501888199810E940906F70124817E
:100E100020782560248391838083B382A28219C0C5
:100E2000843709F408C18B3709F453C08E3609F0B2
:100E300022C163E472E008C1F70184818078806494
:100E400084831182108213821282D1100FC005E0B8
:100E500010E0C801DF91CF911F910F91FF90EF90AB
:100E6000DF90CF90BF90AF909F9008951C86CE01E9
:100E70000E94DE02009709F02DC16DE5CE010E94AF
:100E8000AA028111E6CFDA946D857E85C7010E94A2
:100E9000D405009709F46EC04D2DBC01CE010E940F
:100EA000C306009709F016C1CE010E94DE0200972A
:100EB00009F010C16DE5CE010E94AA028111C9CFCF
:100EC0006CE2CE010E94AA028111DECF03E010E0A5
:100ED000C0CFF70184818078806284831182108280
:100EE00013821282DD2009F4B2CF1C86CE010E944B
:100EF000DE02009709F0EEC06DE7CE010E94AA0263
:100F00008111A7CFBB24B394DA94E881F98182815F
:100F100093819B838A838481958122813381821B83
:100F2000930B9F838E831D821C82892B09F4B086CC
:100F3000CE010E945A02873201F18232F1F0CE01D5
:100F40000E945A02182F0E944802882309F4BECF3B
:100F50001C86612FCE010E940003CE010E945A021E
:100F6000182F0E9448028111F3CFE881F981808512
:100F7000882351F004E010E06CCFCE010E941A03E8
:100F80008C01892B09F065CFCE010E94DE028C0115
:100F9000892B09F05ECF6AE3CE010E94AA02882362
:100FA00009F494CFEA81FB818C819D81E80FF91FC0
:100FB00010820C811D816A817B81C7010E948A0693
:100FC000BC01892BA1F4B801888199810E9409068E
:100FD0008C016D857E85C7010E94D405FC01892B9B
:100FE00049F284818068848317830683BF014D2D75
:100FF000CE010E94C3068C01892B09F02ACFCE01B5
:101000000E94DE028C01892B09F023CF6DE7CE010F
:101010000E94AA0281111DCF6CE2CE010E94AA0299
:10102000882309F453CFCE010E94DE028C01892B64
:1010300009F46BCF0ECFF7018481807886608483BA
:1010400081E0808368E372E0CE01DF91CF911F9150
:101050000F91FF90EF90DF90CF90BF90AF909F9057
:101060000C94BB02F70184818078866084831082AF
:101070006DE372E0E9CFCE010E945A025E01FFE00B
:10108000AF0EB11CD12C9A2CCB2C803374F08A3348
:1010900074F49FE3D91699F01C86D394F5018193DB
:1010A0005F01CE010E945A02F0CF8B3291F393ED93
:1010B000980F923070F3982F9F7D953451F3CD0D9A
:1010C000D11D1F86B701892D9C2D0E94FD03811122
:1010D000C0CEFCCE8C01BDCEEF92FF920F931F933A
:1010E000CF93DF93EC018C81982F9F7739F4807830
:1010F00080628C83198218821B821A828C8185FF00
:101100001DC061157105D1F07A018B01CE010E94DD
:101110008A06009761F4B701CE010E94D4050097BA
:1011200031F0FC0124812F77248317830683DF911C
:10113000CF911F910F91FF90EF90089590E080E084
:10114000F6CF009729F0FC01248125FD0C948A0636
:1011500090E080E00895CF93DF93EC01FB0130979E
:1011600079F0DC010D900020E9F71197A81BB90B6D
:101170009481907894609483D183C083B383A28355
:10118000DF91CF9108950F931F93CF93DF93EC01DD
:1011900088819981009759F02A813B81261737076A
:1011A00030F081E0DF91CF911F910F9108958B0175
:1011B0006F5F7F4F0E940215009759F099838883D3
:1011C0001B830A832C813D81232B59F7FC0110825C
:1011D000E8CF80E0E7CFEF92FF920F931F93CF937A
:1011E000DF936115710541F480E0DF91CF911F918C
:1011F0000F91FF90EF90089541155105B1F07B01DB
:10120000EC010C811D81040F151FB8010E94C30859
:10121000882351F3288139818C819D81B701820F08
:10122000931F0E94EC151D830C8381E0DECFCF93CA
:10123000DF93EC01EAA1FBA1E80FF91F1282BC01C8
:101240006E5F7F4F81F0FB0101900020E9F731973D
:10125000AF01461B570B888199810E94EB088823B8
:1012600011F01BA21AA28AA19BA1DF91CF91089530
:101270001F93CF93DF93EC01162F8AA19BA10196B8
:101280008097B8F48AA19BA19C012F5F3F4F3BA39D
:101290002AA38C0F9D1FFC01128321E030E08CA15A
:1012A0009DA1820F931F9DA38CA3DF91CF911F91CE
:1012B0000895CE010E941709892B21F330E020E028
:1012C000EECFBF92CF92DF92EF92FF920F931F93D8
:1012D000CF93DF93EC016A018B017B01E40EF51ED5
:1012E000E016F106D1F0F801B1908F018AA19BA11F
:1012F0000196809760F48AA19BA19C012F5F3F4FCC
:101300003BA32AA38C0F9D1FFC01B282E9CFCE0123
:101310000E941709892B79F3E3CF4CA15DA14C0DF5
:101320005D1D5DA34CA3DF91CF911F910F91FF90A5
:10133000EF90DF90CF90BF9008958F929F92AF92E1
:10134000BF92CF92DF92EF92FF920F931F93CF93B2
:10135000DF93CDB7DEB766970FB6F894DEBF0FBE4A
:10136000CDBF6C018E01095E1F4F78018AE0882E87
:10137000912CA12CB12CCB01BA01A50194010E94A2
:10138000B313942F852F605DF80162938F01A9013B
:10139000692F782F411551056105710561F7A70186
:1013A0004E1B5F0BBF01C6010E94610966960FB616
:1013B000F894DEBF0FBECDBFDF91CF911F910F918B
:1013C000FF90EF90DF90CF90BF90AF909F908F9065
:1013D0000895FB0101900020E9F73197AF01461B0A
:1013E000570B0C9461091F93CF93DF93E4E2F2E073
:1013F0001281112379F0329621816213F9CFEC0129
:101400006CE50E943809612FCE01DF91CF911F91C9
:101410000C9438096111F9CF68E472E0DF91CF9143
:101420001F910C94E9092F923F924F925F926F9215
:101430007F928F929F92AF92BF92CF92DF92EF9264
:10144000FF920F931F93CF93DF93CDB7DEB76C97C7
:101450000FB6F894DEBF0FBECDBF8C011B01DC01BF
:1014600014968C9114978F77863009F499C268F599
:101470008230A0F11296ED90FC901397CC901196CB
:10148000DC90843008F05DC2A701B601C1010E9462
:101490006109F10184A195A16C960FB6F894DEBFA5
:1014A0000FBECDBFDF91CF911F910F91FF90EF90B5
:1014B000DF90CF90BF90AF909F908F907F906F9074
:1014C0005F904F903F902F9008958C3069F160F4B9
:1014D000883009F460C28A3009F446C263E472E0DD
:1014E000C1010E94E909ECC1803209F4F3C18034E2
:1014F000A9F76BE5C1010E943809F801008111814B
:101500000115110509F4E1C1B101C8010E94130AD6
:10151000C8010E9446068C01892B09F4D6C16CE2F1
:10152000C1010E943809ECCFF801C080D180E2806F
:10153000F380A7019601C701B6010E94B91181117C
:10154000CDCF20E030E0A901C701B6010E94B9115A
:10155000882379F0A7019601C701B6010E94F8120D
:101560009B01AC01C701B6010E94B911882309F49F
:10157000B5CF20E030E0A901C701B6010E94B91142
:1015800087FF08C06DE2C1010E943809F7FAF094A4
:10159000F7F8F09420E836E948E15BE4C701B601CA
:1015A0000E949A1387FD88C074E1A72EB12C00E237
:1015B00010E0188E1F8AF501E45EFE4F659175916B
:1015C00085919491A70196010E94B91118169CF07B
:1015D000F501EC5FFE4F2591359145915491C7017E
:1015E000B6010E941F126B017C012F89388D200FDC
:1015F000311F388F2F8B1595079534E0A31AB1084A
:101600008CEFA8168FEFB806B1F655245A9420E057
:1016100030E0A901C701B6010E949A1318160CF018
:1016200052C02CEA35EC47E257E3C701B6010E94ED
:10163000B91118160CF447C0A52DB4E0AB02C001D7
:101640001124B12CA12CFC01EC5FFE4F3F019C0149
:10165000245E3E4F49013FEF531609F434C0F301B5
:10166000EA0DFB1D659175918591949120E030E024
:1016700040E251E40E941F12A70196010E949A13B2
:1016800018169CF4F401EA0DFB1D25913591459146
:101690005491C701B6010E941F126B017C018F8912
:1016A000988D801B910B988F8F8B159507955A9469
:1016B00094E0A91AB108CFCF00E210E055E0552E12
:1016C000188E1F8AA4CFC701B6010E946B134B016D
:1016D0005C012B013C0106E080E492E4AFE0B0E065
:1016E000898F9A8FAB8FBC8F102F01509AE04916CB
:1016F000510461047104C8F0698D7A8D8B8D9C8DC5
:101700002AE030E040E050E00E94B313298F3A8F86
:101710004B8F5C8FC301B2012AE030E040E050E023
:101720000E94B31329013A01DFCFC501B4010E9421
:10173000BE119B01AC01C701B6010E94F7126B01FB
:101740007C01698D7A8D8B8D9C8D0E94BE119B01D1
:10175000AC01C701B6010E941F122B013C010E947F
:101760006B136B017C010E94BE119B01AC01C30194
:10177000B2010E94F7129B01AC010E94F8120E9474
:101780006B13C60ED71EE81EF91E898D9A8DAB8D80
:10179000BC8DC816D906EA06FB06D8F09FEF891A59
:1017A000990AA90AB90AAF89B88DAB2B39F1BAE009
:1017B0008B169104A104B10408F1EF89F88D3196DC
:1017C000F88FEF8BC12CD12C7601812C912C5401F8
:1017D00083942AE0422E512C612C712CC701B60152
:1017E000A30192010E94B313672B682B692B51F45C
:1017F000111644F469017A011150F0CFC12CD12C9B
:101800007601E7CFB501A401C1010E949D09112312
:1018100071F14E01F1E18F0E911C012F54019AE0FC
:10182000492E512C612C712C015068F0C701B60172
:10183000A30192010E94B313605DD4016E934D0128
:1018400069017A01F1CF812F90E0BC01609570951C
:10185000F501E81BF90B31978EE280834427552769
:10186000461B570B6A0D7B1DC1010E946109EF8960
:10187000F88DEF2B29F165E6C1010E9438090F8927
:10188000188D17FF07C06DE2C1010E94380911953C
:1018900001951109FE0177969F018AE0E82EF12C4F
:1018A000C801B7010E949F13805D82938B01672B53
:1018B000B9F7A9014E1B5F0BBF01C1010E9461096D
:1018C000D10194968D919C91E7CD6DE5C1010E9467
:1018D0003809F6CF6BE7C1010E943809F801008191
:1018E00011810115110559F1D8011696CC90169762
:1018F0001796DC9062E2C1010E9438097601F70177
:1019000061917F01662321F0C1010E94F309F7CFA5
:1019100062E2C1010E9438096AE3C1010E943809EC
:10192000B101C8010E94130AC8010E9446068C0139
:10193000892B29F06CE2C1010E943809D2CF6DE7F2
:10194000C5CF62E2C1010E9438098601E00EF11E96
:10195000E016F10639F0F80161918F01C1010E9492
:10196000F309F6CF62E2B2CFCD90DD90ED90FC901E
:10197000B701A601F7FE0BC06DE2C1010E94380954
:1019800044275527BA014C195D096E097F09C10129
:101990000E949D097ECD4D915D916D917C91F7CF17
:1019A0008C9168E372E0811102C06DE372E0C101C5
:1019B0000E94E9096ECD0F931F93CF93DF93CDB7AC
:1019C000DEB7C65BD1090FB6F894DEBF0FBECDBF40
:1019D0008C01CD56DF4F79836883C359D040CB54F7
:1019E000DF4F19821882C55BD04084E2FE01ED56BC
:1019F000FF4FDE01A159BF4F01900D928A95E1F78B
:101A000084E2FE01E159FF4FDE01A55BBF4F01906B
:101A10000D928A95E1F784E2FE01E55BFF4FDE015E
:101A2000979601900D928A95E1F784E2FE01B796B0
:101A3000DE01119601900D928A95E1F71EA21DA27A
:101A4000CE0187960E941709CE01855B9F4F0E94A9
:101A500017090115110511F1BE016F5F7F4FC80114
:101A60000E94130A8C01CE0101960E941709CE0133
:101A700081599F4F0E941709CE018D569F4F0E949A
:101A80001709C801CA54DF4F0FB6F894DEBF0FBE66
:101A9000CDBFDF91CF911F910F91089563E472E064
:101AA000CE0101960E94E9090DA11EA1DCCFCF93C2
:101AB000DF93EC0188819981009711F00E947914DD
:101AC000198218821D821C821B821A82DF91CF919B
:101AD0000895CF93DF93EC01FB0144815581608130
:101AE00071810E94EB08811103C0CE010E94570D45
:101AF000CE01DF91CF910895EF92FF920F931F9344
:101B0000CF93DF93EC017B018A01BA010E94C308E5
:101B100081110BC0CE010E94570DCE01DF91CF91F4
:101B20001F910F91FF90EF9008951D830C83B701D3
:101B3000888199810E94EC15F0CFFC0111821082FE
:101B40001382128215821482FB0101900020E9F7B2
:101B50003197AF01461B570B0C947C0DFC019B0188
:101B6000892B31F094819F77943031F0953021F0BA
:101B7000B901CF010C94DB0C608171816115710595
:101B8000B9F3FB0101900020E9F73197AF01461B43
:101B9000570BC9010C947C0DFC0180819181009749
:101BA00011F00C9479140895FC01818192810097C1
:101BB00011F00C94791408951F920F920FB60F92A2
:101BC00011242F933F938F939F93AF93BF93809153
:101BD000190390911A03A0911B03B0911C0330913B
:101BE000180323E0230F2D3758F50196A11DB11DD1
:101BF000209318038093190390931A03A0931B0357
:101C0000B0931C038091140390911503A0911603C7
:101C1000B09117030196A11DB11D809314039093F9
:101C20001503A0931603B0931703BF91AF919F9133
:101C30008F913F912F910F900FBE0F901F9018958D
:101C400026E8230F0296A11DB11DD2CF1F920F923D
:101C50000FB60F9211240BB60F922F933F934F9311
:101C60005F936F937F938F939F93AF93BF93EF9304
:101C7000FF938DE193E00E948C01FF91EF91BF9162
:101C8000AF919F918F917F916F915F914F913F9114
:101C90002F910F900BBE0F900FBE0F901F901895B5
:101CA0001F920F920FB60F9211240BB60F922F9323
:101CB0008F939F93EF93FF93E0912D03F0912E0369
:101CC0008081E0913303F091340382FD1DC0908147
:101CD000809136038F5F8F7320913703821741F015
:101CE000E0913603F0E0E35EFC4F958F809336037E
:101CF000FF91EF919F918F912F910F900BBE0F90BD
:101D00000FBE0F901F9018958081F2CF1F920F92F7
:101D10000FB60F9211240BB60F922F933F934F9350
:101D20005F936F937F938F939F93AF93BF93EF9343
:101D3000FF938AEB93E00E948C01FF91EF91BF919A
:101D4000AF919F918F917F916F915F914F913F9153
:101D50002F910F900BBE0F900FBE0F901F901895F4
:101D60001F920F920FB60F9211240BB60F922F9362
:101D70008F939F93EF93FF93E091CA03F091CB036E
:101D80008081E091D003F091D10382FD1DC090814C
:101D90008091D3038F5F8F732091D403821741F01A
:101DA000E091D303F0E0E654FC4F958F8093D3038A
:101DB000FF91EF919F918F912F910F900BBE0F90FC
:101DC0000FBE0F901F9018958081F2CFEDE1F3E0E8
:101DD0001382128248EE53E060E070E04483558342
:101DE0006683778386E192E0918380832DEC30E0F7
:101DF000358724872CEC30E03787268728EC30E0C5
:101E0000318B208B29EC30E0338B228B2AEC30E0B5
:101E1000358B248B2EEC30E0378B268B118E128E77
:101E2000138E148EEAEBF3E01382128244835583FF
:101E3000668377839183808385EC90E095878487A0
:101E400084EC90E09787868780EC90E0918B808B84
:101E500081EC90E0938B828B82EC90E0958B848B6D
:101E600086EC90E0978B868B118E128E138E148EDB
:101E70000895CF93DF93CDB7DEB7C658D1090FB61B
:101E8000F894DEBF0FBECDBF789484B5826084BD68
:101E900084B5816084BD85B5826085BD85B581606E
:101EA00085BD80916E00816080936E0010928100EC
:101EB00080918100826080938100809181008160A7
:101EC0008093810080918000816080938000809168
:101ED000B10084608093B1008091B00081608093F4
:101EE000B000809191008260809391008091910078
:101EF0008160809391008091900081608093900038
:101F00008091A10082608093A1008091A1008160F6
:101F10008093A1008091A00081608093A0008091B7
:101F20002101826080932101809121018160809351
:101F300021018091200181608093200180917A00AD
:101F4000846080937A0080917A00826080937A0026
:101F500080917A00816080937A0080917A00806815
:101F600080937A001092C1008AEB93E00E94E70010
:101F70008DE193E00E94E7008E010F5F1F4FC801C3
:101F80000E945406AE014E5F5F4F6FE472E0CE01D7
:101F90000B960E946C08BC0186E592E00E94AB089B
:101FA000AE014E5F5F4F61E672E0CE010B960E947C
:101FB0006C08BC018AE692E00E94AB08AE014E5F5D
:101FC0005F4F64E772E0CE010B960E946C08BC0183
:101FD0008AE792E00E94AB08AE014E5F5F4F62E974
:101FE00072E0CE010B960E946C08FC01892B61F017
:101FF000948190789A60948382E090E0A0E0B0E0D1
:1020000080839183A283B38364E372E0CE01805B1B
:102010009F4F0E949D0DBE01605B7F4FCE010B96CE
:102020000E94DB0C66964EAD5FAD669762966EAD14
:102030007FAD62978DE193E00E940E01CE01805B3F
:102040009F4F0E94CC0DC8010E94D40D30E5A32EF5
:10205000B12CAC0EBD1E2FEFA21AB20A40E5C42E61
:10206000D12CCC0EDD1E8AE0C80ED11C8DE193E090
:102070000E946C01181619060CF080C0CE01805B1E
:102080009F4F0E94540663968EAD9FAD63976596F1
:102090009FAF8EAF659769968EAD9FAD6997679636
:1020A0009FAF8EAF67976A961FAE6A976F968FAD98
:1020B0006F9780786F968FAF6F97A996BFAEAEAED1
:1020C000A99788E0FE01E959FF4FDE01A15ABF4FF1
:1020D00001900D928A95E1F788E0FE01E15AFF4FE9
:1020E000D80101900D928A95E1F719868DE193E070
:1020F0009B878A871D86BF86AE864AE0B601C801E7
:102100000E94C3067C01892B59F48C858823C9F170
:102110006F968FAD6F9783FF34C023E0E22EF12CD2
:1021200094E3892E91E0992EF4016491662349F09D
:102130008AEB93E00E94AE01FFEF8F1A9F0A892B72
:1021400099F7F701EE0FFF1FEA5FFD4F6081718184
:102150006115710561F0FB0101900020E9F73197ED
:10216000AF01461B570B8AEB93E00E940E010E94C1
:102170006F06CE01805B9F4F0E94D40D0E941B0210
:1021800075CF6FE472E0C6010E94A1087C0164E390
:1021900072E0CE018F579F4F0E949D0DBE016F5779
:1021A0007F4FC7010E94AE0D61E672E0C6010E943A
:1021B000A1087C0164E372E0CE0185589F4F0E9424
:1021C0009D0DBE0165587F4FC7010E94AE0D64E7AB
:1021D00072E0C6010E94A1087C0164E372E0CE01B6
:1021E0008B589F4F0E949D0DBE016B587F4FC701BA
:1021F0000E94AE0D62E972E0C6010E94A108F12CB6
:10220000E12C009719F00E9464057C014EE050E03B
:102210006EE972E08AEB93E00E940E010E946F0665
:102220006DEA72E0C8010E949D0DBE016F577F4F9D
:10223000C8010E94690D0E947706C8010E94CC0D5A
:1022400066EB72E0C8010E949D0DBE0165587F4F8C
:10225000C8010E94690D0E947706C8010E94CC0D3A
:1022600061EC72E0C8010E949D0DBE016B587F4F6A
:10227000C8010E94690D0E947706C8010E94CC0D1A
:10228000E1961FAE1EAEE197E3961FAE1EAEE3973A
:10229000E5961FAE1EAEE5974AE0B801C7010E9461
:1022A0008411F80101900020E9F73197AF01401B3C
:1022B000510BB801CE0181599F4F0E947C0D69ECF2
:1022C00072E0C8010E949D0DBE0161597F4FC80197
:1022D0000E94690D0E947706C8010E94CC0DCE01B4
:1022E00081599F4F0E94CC0DCE018B589F4F0E9469
:1022F000CC0DCE0185589F4F0E94CC0DCE018F573B
:102300009F4F0E94CC0D35CFBB274A3031F4992323
:1023100022F4BDE2909581959F4F0C949011BB27BC
:10232000FB015527AA27880F991FAA1FA41710F091
:10233000A41B83955051B9F7A05DAA3308F0A95D9D
:10234000A193009779F7B111B1931192CB010C943D
:10235000A911DC01FC01672F71917723E1F7329716
:1023600004C07C916D9370836291AE17BF07C8F370
:1023700008950E94FB1108F481E00895E89409C0D3
:1023800097FB3EF490958095709561957F4F8F4FA8
:102390009F4F9923A9F0F92F96E9BB279395F695BE
:1023A000879577956795B795F111F8CFFAF4BB0F3C
:1023B00011F460FF1BC06F5F7F4F8F4F9F4F16C0A0
:1023C000882311F096E911C0772321F09EE8872F2A
:1023D000762F05C0662371F096E8862F70E060E0E6
:1023E0002AF09A95660F771F881FDAF7880F96955F
:1023F000879597F90895990F0008550FAA0BE0E803
:10240000FEEF16161706E807F907C0F012161306B6
:10241000E407F50798F0621B730B840B950B39F4F6
:102420000A2661F0232B242B252B21F408950A265C
:1024300009F4A140A6958FEF811D811D08950E948A
:1024400032120C94A3120E94951238F00E949C1232
:1024500020F0952311F00C948C120C9492121124FC
:102460000C94D7120E94B41270F3959FC1F3950F8C
:1024700050E0551F629FF001729FBB27F00DB11D08
:10248000639FAA27F00DB11DAA1F649F6627B00D98
:10249000A11D661F829F2227B00DA11D621F739F81
:1024A000B00DA11D621F839FA00D611D221F749F8F
:1024B0003327A00D611D231F849F600D211D822FD6
:1024C000762F6A2F11249F5750409AF0F1F08823FD
:1024D0004AF0EE0FFF1FBB1F661F771F881F91502A
:1024E0005040A9F79E3F510580F00C948C120C943B
:1024F000D7125F3FE4F3983ED4F3869577956795BE
:10250000B795F795E7959F5FC1F7FE2B880F911D53
:102510009695879597F9089597F99F6780E870E0F9
:1025200060E008959FEF80EC089500240A94161649
:10253000170618060906089500240A9412161306B1
:10254000140605060895092E0394000C11F488233F
:1025500052F0BB0F40F4BF2B11F460FF04C06F5F5B
:102560007F4F8F4F9F4F089557FD9058440F551F31
:1025700059F05F3F71F04795880F97FB991F61F005
:102580009F3F79F087950895121613061406551F7C
:10259000F2CF4695F1DF08C0161617061806991FE8
:1025A000F1CF86957105610508940895E894BB27DD
:1025B00066277727CB0197F908950E94E812A59F17
:1025C000900DB49F900DA49F800D911D112408952E
:1025D000A29FB001B39FC001A39F700D811D112464
:1025E000911DB29F700D811D1124911D08955058A9
:1025F000BB27AA270E940F130C94A3120E949512C6
:1026000038F00E949C1220F039F49F3F19F426F410
:102610000C9492120EF4E095E7FB0C948C12E92FC7
:102620000E94B41258F3BA1762077307840795071C
:1026300020F079F4A6F50C94D6120EF4E0950B2E4A
:10264000BA2FA02D0B01B90190010C01CA01A00104
:102650001124FF27591B99F0593F50F4503E68F15F
:102660001A16F040A22F232F342F4427585FF3CFA0
:10267000469537952795A795F0405395C9F77EF471
:102680001F16BA0B620B730B840BBAF09150A1F0BA
:10269000FF0FBB1F661F771F881FC2F70EC0BA0F40
:1026A000621F731F841F48F4879577956795B795C8
:1026B000F7959E3F08F0B0CF9395880F08F09927C3
:1026C000EE0F9795879508950E946B136894B1114A
:1026D0000C94D71208950E94BC1288F09F5798F06E
:1026E000B92F9927B751B0F0E1F0660F771F881F17
:1026F000991F1AF0BA95C9F714C0B13091F00E9431
:10270000D612B1E008950C94D612672F782F88273F
:10271000B85F39F0B93FCCF3869577956795B39557
:10272000D9F73EF490958095709561957F4F8F4FC6
:102730009F4F08950E94FB1108F48FEF0895AA1B84
:10274000BB1B51E107C0AA1FBB1FA617B70710F09C
:10275000A61BB70B881F991F5A95A9F780959095CE
:10276000BC01CD010895A1E21A2EAA1BBB1BFD01DD
:102770000DC0AA1FBB1FEE1FFF1FA217B307E40760
:10278000F50720F0A21BB30BE40BF50B661F771FB8
:10279000881F991F1A9469F7609570958095909598
:1027A0009B01AC01BD01CF010895EE0FFF1F881FF3
:1027B0008BBF0790F691E02D19940F931F93CF9341
:1027C000DF938230910510F482E090E0E0915904AB
:1027D000F0915A0430E020E0B0E0A0E0309799F4A6
:1027E0002115310509F44AC0281B390B2430310565
:1027F000D8F58A819B816115710589F1FB0193836D
:102800008283FE0111C040815181028113814817EA
:102810005907E0F04817590799F4109761F012969C
:102820000C93129713961C933296CF01DF91CF91A0
:102830001F910F9108950093590410935A04F4CFF7
:102840002115310551F04217530738F0A901DB017A
:102850009A01BD01DF01F801C1CFEF01F9CF9093DB
:102860005A0480935904CDCFFE01E20FF31F8193E8
:1028700091932250310939832883D7CF209157046F
:1028800030915804232B41F420910202309103022D
:102890003093580420935704209100023091010294
:1028A0002115310541F42DB73EB7409104025091F6
:1028B0000502241B350BE0915704F0915804E217F0
:1028C000F307A0F42E1B3F0B2817390778F0AC0153
:1028D0004E5F5F4F2417350748F04E0F5F1F509330
:1028E000580440935704819391939FCFF0E0E0E028
:1028F0009CCFCF93DF930097E9F0FC0132971382CE
:102900001282A0915904B0915A04ED0130E020E008
:102910001097A1F420813181820F931F20915704D9
:10292000309158042817390709F061C0F093580412
:10293000E0935704DF91CF910895EA01CE17DF07A6
:10294000E8F54A815B819E0141155105B1F7E90126
:10295000FB83EA8349915991C40FD51FEC17FD07FA
:1029600061F4808191810296840F951FE90199831A
:102970008883828193819B838A83F0E0E0E01296D2
:102980008D919C9113970097B9F52D913C911197DA
:10299000CD010296820F931F209157043091580465
:1029A0002817390739F6309751F510925A041092CA
:1029B0005904B0935804A0935704BCCFD383C28367
:1029C00040815181840F951FC817D90761F44E5F6C
:1029D0005F4F88819981480F591F518340838A81B5
:1029E0009B81938382832115310509F0B0CFF09349
:1029F0005A04E09359049ECFFD01DC01C0CF13823D
:102A00001282D7CF4F925F926F927F928F929F9256
:102A1000AF92BF92CF92DF92EF92FF920F931F93EC
:102A2000CF93DF938C01009799F4CB01DF91CF9185
:102A30001F910F91FF90EF90DF90CF90BF90AF90DC
:102A40009F908F907F906F905F904F900C94DD13CC
:102A5000FC01E60FF71F9C0122503109E217F30732
:102A600008F4AEC0D901CD91DC911197C617D707F4
:102A700020F1C530D10578F0CE010497861797076D
:102A800050F0C61BD70B2297C193D1936D937C93C3
:102A9000CF010E947914C801DF91CF911F910F914E
:102AA000FF90EF90DF90CF90BF90AF909F908F906E
:102AB0007F906F905F904F9008955B01AC1ABD0AB4
:102AC0004C018C0E9D1EA0915904B0915A04512CBA
:102AD000412CF12CE12C109731F580915704909105
:102AE00058048815990509F05CC04616570608F089
:102AF00058C08091000290910102009741F48DB777
:102B00009EB74091040250910502841B950BE81773
:102B1000F90708F055C0F0935804E0935704F90101
:102B200071836083B8CF8D919C91119712966C90B0
:102B3000129713967C901397A815B90559F56C0157
:102B400042E0C40ED11CCA14DB0420F1AC014A19C6
:102B50005B09DA011296159780F0628273825183C5
:102B60004083D9016D937C93E114F10471F0D70196
:102B70001396FC93EE9312978ECF22968C0F9D1F87
:102B8000F90191838083F301EFCFF0935A04E0932E
:102B9000590481CF4816590608F42C017D01D30150
:102BA0009ACFCB010E94DD137C01009749F0AE0162
:102BB000B8010E94E315C8010E94791487016BCF08
:102BC00010E000E068CFFB01DC0102C001900D9233
:102BD00041505040D8F70895FB01DC0101900D925F
:0A2BE0000020E1F70895F894FFCFFC
:102BEA0000005B048000D702DA02E502F502020364
:102BFA000B0300000000AE010E013B01FB016C015A
:102C0A004A015E012F2F22225C5C6208660C6E0A62
:102C1A00720D7409000D0A00747275650066616CA4
:102C2A007365006E756C6C005C7530303030007303
:102C3A00656E646572007468656D6F6D6574657242
:102C4A00007265636569766572007765627365729D
:102C5A0076657200746F70696300746865726D6F6F
:102C6A006D657465722D73656E736F722D64617410
:102C7A00610074656D706572617475726500526584
:102C8A0063656976656420646174613A0053656EB0
:102C9A006465723A200052656365697665723A2006
:102CAA0000546F7069633A200054656D70657261F3
:102CBA00747572653A20004F6B00456D70747949DE
:102CCA006E70757400496E636F6D706C65746549DA
:102CDA006E70757400496E76616C6964496E7075C0
:102CEA0074004E6F4D656D6F727900546F6F446555
:042CFA006570000001
:00000001FF
