:100000000C94BD000C94EE000C94EE000C94EE00E9
:100010000C94EE000C94EE000C94EE000C94EE00A8
:100020000C94EE000C94EE000C94EE000C94EE0098
:100030000C94EE000C94EE000C94EE000C94EE0088
:100040000C94EE000C94EE000C94EE000C94EE0078
:100050000C94EE000C94EE000C94EE000C94051938
:100060000C94EE000C94D9190C94AF190C94EE007A
:100070000C94EE000C94EE000C94EE000C94EE0048
:100080000C94EE000C94EE000C94EE000C94EE0038
:100090000C9479190C944F190C94EE000C94EE000A
:1000A0000C94EE000C94EE000C94EE000C94EE0018
:1000B0000C94EE000C94EE000C94EE000C94EE0008
:1000C0000C94EE000C94EE000C94EE000C94EE00F8
:1000D0000C94EE000C94EE000C94EE000C94EE00E8
:1000E0000C94EE000C9402190C946C1F0C9481017A
:1000F0000C94D5110C9423010C94C3010C945F0152
:100100000C940F1A0C9410020C9450010C9496113C
:100110000C947301CDCCCC3D0AD7233C17B7D13812
:1001200077CC2B329595E6241FB14F0A0000204171
:100130000000C84200401C4620BCBE4CCA1B0E5AE0
:10014000AEC59D74646573657269616C697A654A50
:10015000736F6E2829206661696C65642077697405
:100160006820746865206572726F72206D657373A4
:100170006167653A20000F1A6C1F11241FBECFEF74
:10018000D1E2DEBFCDBF00E00CBF24E0A8EFB2E0BB
:1001900001C01D92A438B207E1F712E0A0E0B2E07E
:1001A000E4EFF7E400E00BBF02C007900D92A83F18
:1001B000B107D9F710E0CCEBD0E000E006C0219702
:1001C0000109802FFE010E94C121CB3BD10780E0B5
:1001D0000807A9F70E94791A0C94E8230C940000F0
:1001E000FC01A089B18982E08C93A485B5851C921D
:1001F000A685B78580E18C93108EA489B58986E0A9
:100200008C93A289B3898C9180618C93A289B389E4
:100210008C9188608C93A289B3898C9180688C932F
:100220000288F389E02D80818F7D808308952FB728
:10023000F89460912103709122038091230390919F
:1002400024032FBF0895AF92BF92CF92DF92EF9217
:10025000FF920F931F93CF93DF936C017B018B0170
:10026000040F151FEB015E01AE18BF08C017D107C0
:1002700059F06991D601ED91FC910190F081E02D4A
:10028000C6011995892B79F7C501DF91CF911F918F
:100290000F91FF90EF90DF90CF90BF90AF900895B7
:1002A000FC01538D448D252F30E0842F90E0821B7C
:1002B000930B541710F0CF96089501970895FC0101
:1002C000918D828D981761F0A28DAE0FBF2FB11D59
:1002D0005D968C91928D9F5F9F73928F90E00895B1
:1002E0008FEF9FEF0895FC01918D828D981731F06B
:1002F000828DE80FF11D858D90E008958FEF9FEFBF
:100300000895FC01918D228D892F90E0805C9F4F94
:10031000821B91098F739927089585E293E00E94CB
:10032000810121E0892B09F420E0822F089582ECDD
:1003300093E00E94810121E0892B09F420E0822FC3
:100340000895FC01A48DA80FB92FB11DA35ABF4F6A
:100350002C91848D90E001968F739927848FA689C4
:10036000B7892C93A089B1898C91837080648C9318
:10037000938D848D981306C00288F389E02D8081C7
:100380008F7D80830895EF92FF920F931F93CF93F9
:10039000DF93EC0181E0888F9B8D8C8D98131AC0C0
:1003A000E889F989808185FF15C09FB7F894EE89A7
:1003B000FF896083E889F989808183708064808304
:1003C0009FBF81E090E0DF91CF911F910F91FF904F
:1003D000EF900895F62E0B8D10E00F5F1F4F0F73F7
:1003E0001127E02E8C8D8E110CC00FB607FCFACFB2
:1003F000E889F989808185FFF5CFCE010E94A101AE
:10040000F1CFEB8DEC0FFD2FF11DE35AFF4FF08282
:100410009FB7F8940B8FEA89FB8980818062CFCFE8
:10042000CF93DF93EC01888D8823B9F0AA89BB892B
:10043000E889F9898C9185FD03C0808186FD0DC016
:100440000FB607FCF7CF8C9185FFF2CF808185FF37
:10045000EDCFCE010E94A101E9CFDF91CF910895A8
:1004600080E090E0892B29F00E94970181110E9481
:10047000000080E090E0892B29F00E948D0181111D
:100480000E94000080E090E0892B49F080E090E03D
:10049000892B29F00E94000081110E94000080E059
:1004A00090E0892B49F080E090E0892B29F00E94B0
:1004B000000081110C94000008956F3FB1F0E62F09
:1004C000E295EF7044E0E49F90011124DC01ED918E
:1004D000FC91E20FF31F6F70B8E06B9FC001112415
:1004E00062817381860F971F089590E080E00895E0
:1004F000CF93C82FCB016C2F45960E945D022FEF42
:10050000009711F0FC012581BC018C2F922FCF9117
:100510000895982F80336CF08A3324F08F3524F0BF
:100520008B3724F481E0089581341CF081E09B3501
:100530000CF080E00895CF93DF93EC0188819981DE
:10054000DC01ED91FC910190F081E02D19952A815B
:100550003B81820F931F9B838A83DF91CF91089504
:10056000CF93DF93EC0188819981DC01ED91FC91BF
:100570000280F381E02D19952A813B81820F931F20
:100580009B838A83DF91CF9108958F929F92AF9240
:10059000BF92CF92DF92EF92FF920F931F93CF9370
:1005A000DF93CDB7DEB766970FB6F894DEBF0FBE08
:1005B000CDBF6C018E01095E1F4F78018AE0882E45
:1005C000912CA12CB12CCB01BA01A50194010E9460
:1005D0009F21942F852F605DF80162938F01A901FF
:1005E000692F782F411551056105710561F7A70144
:1005F0004E1B5F0BBF01C6010E94B00266960FB68C
:10060000F894DEBF0FBECDBFDF91CF911F910F9148
:10061000FF90EF90DF90CF90BF90AF909F908F9022
:100620000895CF92DF92EF92FF920F931F93CF9393
:10063000DF93EC018A85811130C00F8118850E94FB
:100640001701D80118966D937D938D939C931B97FA
:10065000D801ED91FC910284F385E02DC801199534
:1006600097FF25C00E941701F801C084D184E2845D
:10067000F3846C197D098E099F09C480D580E680BA
:10068000F7806C157D058E059F0510F38FEF9FEFAA
:1006900097FD80E0898781E08A878985DF91CF9106
:1006A0001F910F91FF90EF90DF90CF9008959927C1
:1006B000EFCF1F93CF93DF93EC01162F0E9411030E
:1006C000811306C01A8681E0DF91CF911F910895B2
:1006D00080E0FACF0F931F93CF93DF938C01EB0150
:1006E0008991882369F0C8010E941103882379F059
:1006F000FE013197908198130DC0F8011286F0CF5A
:1007000090E080E0DF91CF911F910F91089582E0FA
:1007100090E0F8CF83E090E0F5CFCF93DF93EC014A
:10072000CE010E9411038B304CF489305CF4882395
:1007300059F081E08E8390E080E00BC08D3011F0A5
:100740008032B9F71A86ECCF8E81811105C081E025
:1007500090E0DF91CF91089582E090E0FACF2F9260
:100760003F924F925F926F927F928F929F92AF9241
:10077000BF92CF92DF92EF92FF920F931F93CF938E
:10078000DF9300D000D0CDB7DEB71C014A015B017A
:1007900086E0D1011A968C9320E836E948E15BE4C3
:1007A000CB01B4010E94862187FD84C004E110E0E2
:1007B00060E2462E512C1E821D82F801E45DFE4F40
:1007C0002591359145915491C501B4010E9486212E
:1007D00087FD13C0F801EC5EFE4F259135914591E0
:1007E0005491C501B4010E940B204B015C01ED81C5
:1007F000FE81E40DF51DFE83ED835594479404506E
:1008000011090C3FFFEF1F07C1F677247A9420E00F
:1008100030E0A901C501B4010E94862118160CF030
:1008200051C02CEA35EC47E257E3C501B4010E9400
:10083000A51F18160CF446C0272D34E023028001B2
:100840001124F12CE12CC8018C5E9E4F6C01045DDB
:100850001E4F9FEF791609F435C0F601EE0DFF1D0E
:10086000659175918591949120E030E040E251E4EA
:100870000E940B20A50194010E94862118169CF469
:10088000F801EE0DFF1D2591359145915491C5015B
:10089000B4010E940B204B015C01AD81BE81A41903
:1008A000B509BE83AD83559447947A94B4E0EB1AAE
:1008B000F108CFCF30E2432E512C45E0742E1E823A
:1008C0001D82A5CF2D813E81F10131872087C50191
:1008D000B4010E94572169837A838B839C83D10161
:1008E0006D937D938D939C9313972B013C0190E422
:1008F000C92E92E4D92E9FE0E92EF12CBAE04B16D6
:10090000510461047104C8F0C701B6012AE030E067
:1009100040E050E00E949F2169017A01F101828547
:1009200081508287C301B2012AE030E040E050E00C
:100930000E949F2129013A01E1CF69817A818B814F
:100940009C810E94AA1F9B01AC01C501B4010E94B9
:10095000E3204B015C01C701B6010E94AA1F9B0165
:10096000AC01C501B4010E940B202B013C010E9487
:1009700057214B015C010E94AA1F9B01AC01C301DE
:10098000B2010E94E3209B01AC010E94E4200E947E
:100990005721860E971EA81EB91E8C149D04AE0406
:1009A000BF0430F5D10114968D929D92AD92BC9208
:1009B00017978AE0C82ED12CE12CF12CD101149686
:1009C0006D917D918D919C911797A70196010E9441
:1009D0009F21672B682B692B89F5F10182851816F9
:1009E0006CF5248335834683578381508287E6CF15
:1009F000F101148215821682178289819A81AB8156
:100A0000BC810196A11DB11D80839183A283B38314
:100A10002D813E812115310561F20A97A105B105AD
:100A200040F2C90101969187808781E090E0A0E0C3
:100A3000B0E080839183A283B383BBCF26960FB6A9
:100A4000F894DEBF0FBECDBFDF91CF911F910F9104
:100A5000FF90EF90DF90CF90BF90AF909F908F90DE
:100A60007F906F905F904F903F902F900895DC01A2
:100A70008D919C910097E1F0FC01238130E0DB0136
:100A800012964D915C9113972417350769F4ED91F7
:100A9000FC91DC0114962E0F3F1FE217F30741F083
:100AA00051914D915417C9F3FC0180819181E2CF9E
:100AB00008954F925F926F927F928F929F92AF9222
:100AC000BF92CF92DF92EF92FF920F931F93CF933B
:100AD000DF93EB01DC012C912B32D9F12D32D1F5D2
:100AE0000196FF24F394FC01208130ED320F3A305F
:100AF00018F02E3209F042C18C0160E070E0CB01A9
:100B0000F801219130ED832E820E39E0381520F165
:100B10006A3949E97407840749E1940738F5AAE07E
:100B2000B0E09B01AC010E94C920912CB12CA12CFA
:100B300024013501409450946094709446165706F1
:100B40006806790698F0680D791D8A1D9B1D8F0136
:100B5000D7CF0196F12CC7CF211108C0FF20E9F1B2
:100B600061307105810550E89507A0F0E12CBAE0ED
:100B70008B2E912CA12CB12C6115710530E88307C7
:100B80009105B0F1A50194010E949F21CA01B9010C
:100B9000E394F2CF2C8120782A602C839B01AC0156
:100BA00088279927DC01821B930BA40BB50B888344
:100BB0009983AA83BB838F2DDF91CF911F910F91D2
:100BC000FF90EF90DF90CF90BF90AF909F908F906D
:100BD0007F906F905F904F9008952C8120782860CF
:100BE0002C83688379838A839B83FF24F394E3CFE8
:100BF000F801D8012D918D0130ED320F3A3010F40B
:100C0000E394F6CF2E3201F58F010F5F1F4FF801ED
:100C10000F5F1F4F2081A0EDDA2ED20EB9E0BD1577
:100C200098F06C3CECEC7E07ECE08E07910578F7D1
:100C3000AAE0B0E09B01AC010E94C9206D0D711DBE
:100C4000811D911DEA94E3CF20812F7D10E000E00B
:100C5000253409F05BC021812D32D1F53296CC24A8
:100C6000C394DF0110E000E02E2D0E2C000C330B9E
:100C70005AE0B52EFD01DD9040ED4D0D4A3008F0F3
:100C800040C0B09EA001B19E500D11240D2DDD0C71
:100C9000110B00531109040F151FA801420F531F18
:100CA000473251053CF38C81CC20C9F040E050E044
:100CB00060E070E8F11003C040E050E0BA018078D5
:100CC0008C608C83488359836A837B83FC2C73CF2D
:100CD0002B3219F03196C12CC4CF3296FCCF40E0B4
:100CE00050E060E87FEFF11004C040E050E060E8C1
:100CF0007FE780788C608C83488359836A837B8309
:100D000074CFCC2019F01195019511092081211182
:100D100035C00E0D111DE7FC1A950E94AA1F3CE27A
:100D2000C32E31E0D32E101611063CF0119501951B
:100D3000110944E1C42E41E0D42EE12C0115110526
:100D400091F000FF0CC024E0E29EF0011124EC0DB4
:100D5000FD1D25913591459154910E940B201595CB
:100D60000795E394EBCFF11090582C8120782C60FC
:100D70002C83688379838A839B8337CFF12C1BCFA5
:100D8000CF92DF92EF92FF92CF93DF9300D01F922A
:100D90001F92CDB7DEB7FC0184818F778630D9F002
:100DA00040F48430A9F1853009F43FC090E080E040
:100DB00014C08A30F1F08C3009F43FC08830B1F7AC
:100DC00080819181A281B381811520E89207A105DC
:100DD000B10560F702C0808190E00F900F900F90F6
:100DE0000F900F90DF91CF91FF90EF90DF90CF9019
:100DF000089580819181A281B381AC01BD015058D9
:100E00006F4F7F4F411551056140710578F6E5CF71
:100E1000808191811D82BE016F5F7F4F0E945905C5
:100E2000CE0101960E94C006D8CF808191811D829B
:100E3000BE016F5F7F4F0496F1CFC080D180E2800A
:100E4000F38020E030E040E057ECC701B6010E949B
:100E5000862187FDABCF20E03EEF4FEF56E4C70180
:100E6000B6010E94A51F18160CF4A0CFC701B60149
:100E70000E945021CB01B1CF1F93CF93DF93EC01A0
:100E8000CB011B81612F45960E945D029983888367
:100E90001A83009719F0FC0185818B83DF91CF9134
:100EA0001F9108950F931F93CF93DF93CDB7DEB7B4
:100EB0002C970FB6F894DEBF0FBECDBFDC01ED91CD
:100EC000FC9111973097B9F418861F828FEF8987AC
:100ED0002F81388549855A856B857C8580E090E037
:100EE0002C960FB6F894DEBF0FBECDBFDF91CF9129
:100EF0001F910F91089512960D911C91B801808158
:100F00000E94780269837A838B839C831E830D837E
:100F100086E0FE013196DE01179601900D928A95CA
:100F2000E1F7D6CFFC01248120782062248300974A
:100F300019F02FEF208321830895FC0192899150AD
:100F400084E0989F90011124A089B189A20FB31F5A
:100F50001296ED91FC9113973097E9F011962C9130
:100F600011978C912817B8F481E0820F11968C9319
:100F700088E0289FA0011124E40FF51F309759F055
:100F800014828FEF858317821682BF01892F829585
:100F9000807F820F089560E070E08FEF0895DF9208
:100FA000EF92FF920F931F93CF93DF93EC017B019E
:100FB000D12C688979898A89D816E0F484E0D89E92
:100FC00080011124060F171FD80112966D917C9194
:100FD0006115710541F0D701ED91FC910280F3811B
:100FE000E02DC7011995F801138212821082118237
:100FF000D394DFCF1A8A8FEF8C8BC617D70761F097
:10100000D701ED91FC910280F381E02DC701199584
:10101000D98BC88B84E08B8BDF91CF911F910F917F
:10102000FF90EF90DF900895DB01ED91FC91119717
:101030000280F381E02DBC01CD0119940F931F9321
:10104000CF93DF93EC016881798105960E94CF07E9
:101050001A82088119818B819C81009749F0FC01DB
:10106000208131813C832B83B8010E941408F3CF87
:10107000DF91CF911F910F9108950F931F93CF93FD
:10108000DF93EC01088119818B819C81009749F0E5
:10109000FC01208131813C832B83B8010E9414081C
:1010A000F3CF68817981CE010596DF91CF911F91B1
:1010B0000F910C94CF07CF93DF93EC01E881F98176
:1010C000B0E0A0E03097F9F09F012C5F3F4F62172E
:1010D0007307A1F4928191509283911114C0808181
:1010E0009181109741F08D939C93BA01CF01DF91CC
:1010F000CF910C94140899838883F7CFDF01019076
:10110000F081E02DDFCFDF91CF9108950F931F93F2
:10111000CF93DF93EC018B018C8180FF0BC0FB012F
:1011200040815181688179816C5F7F4FC80103964E
:101130000E945B088C81807651F0209741F0B801C5
:10114000CE01DF91CF911F910F910C94CD08DF91CB
:10115000CF911F910F910895CF93DF93EC010E94DF
:1011600086088C8180788C83DF91CF910895CF930E
:10117000DF93EC0188819981009721F06A817B815E
:101180000E94AC08EA81FB8180E0309719F08281EF
:1011900091E08927DF91CF9108958F929F92AF922E
:1011A000BF92CF92DF92EF92FF920F931F93CF9354
:1011B000DF936C018B01FC01C0815B01F5E1AF0E97
:1011C000B11C4B0183E0880E911CCF3FF9F06C2FCE
:1011D000C5010E945D027C01FC01D581848187FFED
:1011E00009C0F80140815181F70166817781C4010E
:1011F0000E945B08B801C7010E94AC08F801818D0C
:10120000F7018583F801C18FCD2FDFCFF601C083B1
:10121000C183DF91CF911F910F91FF90EF90DF90ED
:10122000CF90BF90AF909F908F900895EF92FF92D4
:101230000F931F93CF93DF937C018B01EA016F3FE4
:10124000710509F0B0F4E881F9810480F581E02DA1
:10125000AB014B5F5F4FBC01CE011995009749F080
:10126000FC010383DF91CF911F910F91FF90EF90CD
:101270000895E881F9810280F381E02DB701CE0164
:10128000199590E080E0EECFFF920F931F93CF93DC
:10129000DF93EC01F62E8A819B810097C9F06C8167
:1012A0007D81FC0123812617170691F4088119819D
:1012B000F80140815181660F771F6F5F7F4F0E9459
:1012C0001609009719F421E0F80122839B838A8391
:1012D0008A819B81009759F02C813D81A9014F5F44
:1012E0005F4F5D834C83820F931FFC01F482DF917B
:1012F000CF911F910F91FF9008959F92AF92BF924F
:10130000CF92DF92EF92FF920F931F93CF93DF93D1
:1013100000D01F921F92CDB7DEB78C010E9411033F
:10132000D82EF8011286F12CE12C60EFC62EC801F0
:101330000E941103F8011286D81609F4B3C0811176
:1013400013C082E090E00F900F900F900F900F90DD
:10135000DF91CF911F910F91FF90EF90DF90CF9091
:10136000BF90AF909F9008958C3509F099C0C80147
:101370000E941103882329F3E0E3F2E0853709F0A6
:1013800083C0F801128654E0952EB12CA12CC8011F
:101390000E9411038823A9F2813434F480538031F0
:1013A00030F083E090E0CFCF8F7D8753F8CF44E0DB
:1013B000AA0CBB1C4A95E1F7A82AF80112869A9458
:1013C0009110E5CFC501985D8115944020F4750119
:1013D000F3E0FF22ACCFC5019C5D81159440A8F4D9
:1013E00083E0B822B701762F6627770F770F6A2937
:1013F0007B2990E080E001966038710581059105B8
:1014000040F4C8010E94440992CFB50190E080E009
:10141000F3CF1982262F2F7320682A8326E0969512
:101420008795779567952A95D1F76032710580F495
:10143000606C6B835E01E4E0AE0EB11CF50162915D
:101440005F01662309F473CFC8010E944409F6CFF7
:10145000262F2F7320682B8386E0769567958A95D3
:10146000E1F76031710538F4606E6C835E01F5E080
:10147000AF0EB11CE3CF60686C83CD825E0126E0C5
:10148000A20EB11CDBCF32969081992309F489CF4B
:101490008913F9CF8181882309F483CFF80112865B
:1014A000682FAFCF82819381892B19F484E090E07B
:1014B0004ACF90E080E047CFAF92BF92CF92DF92C9
:1014C000EF92FF920F931F93CF93DF9300D01F9261
:1014D000CDB7DEB78C01DC011296ED91FC9113972C
:1014E00014968D919C911597E80FF91F1482ED9039
:1014F000FC9011971496AD90BC9015971296CD90D4
:10150000DC90C60104969A838983BC82AB82BE01BB
:101510006F5F7F4FC70103960E943705009749F51B
:10152000F70140815181B501C6010E94160900975B
:1015300021F421E0D70112962C93D801ED91FC9172
:1015400023813481DC012D933C9394838383F801C0
:10155000138212820F900F900F900F90DF91CF9116
:101560001F910F91FF90EF90DF90CF90BF90AF90C1
:101570000895DC0112962C9112972F5F12962C93EE
:10158000E9CFCF93DF93EC0190E080E0CF3FD1052E
:1015900009F088F4CB01BE016B5F7F4FDC01ED9158
:1015A000FC910190F081E02D1995009721F0FC014C
:1015B000C38321E02283DF91CF910895AF92BF9240
:1015C000CF92DF92EF92FF920F931F93CF93DF930F
:1015D00000D01F921F92CDB7DEB729833A834B8389
:1015E0005C836D83E980FA80CB80DC80DC01ED9147
:1015F000FC91A6014E0D5F1D309759F123812C15EA
:101600001D0479F457019F012C5F3F4F4A155B057C
:1016100061F0D5017D915D01D9016D919D01761734
:10162000A9F30190F081E02DE7CF82818F5F828363
:10163000CF010F900F900F900F900F90DF91CF91EF
:101640001F910F91FF90EF90DF90CF90BF90AF90E0
:101650000895B8015C01C6010E94C10AFC0100970F
:1016600039F30496A7014C0D5D1DE416F50639F01B
:10167000D7012D917D01DC012D93CD01F6CFDF0146
:10168000AC0DBD1D14961C92D5018D919C911197A6
:1016900091838083ED93FC93CBCF6F927F928F9257
:1016A0009F92AF92BF92CF92DF92EF92FF920F93F1
:1016B0001F93CF93DF9300D000D000D01F921F92D2
:1016C000CDB7DEB76C0186E0FB01DE01119601901B
:1016D0000D928A95E1F7D6011296AD90BC901397C2
:1016E000ED90FC9009811A817B806C808D809E80BA
:1016F000E114F10489F0B501C7010E94AC0801159D
:10170000110551F08A94892831F5F7018481807898
:101710008460848311830083D6011296ED91FC913D
:1017200080E0309719F0828191E089272B960FB6DF
:10173000F894DEBF0FBECDBFDF91CF911F910F9107
:10174000FF90EF90DF90CF90BF90AF909F908F90E1
:101750007F906F900895202F18870F83472D7986EB
:101760006A861B86D5010D911C913885562D60E047
:10177000C50103960E94DE0A9C01892B21F481E0B9
:10178000F5018283C9CFF7019481907895609483A5
:1017900031832083C1CF42E050E061E472E082EC0B
:1017A00093E00C942301FB0101900020E9F73197AD
:1017B000AF01461B570B0C94B0021F93CF93DF93DE
:1017C000E0E3F2E01281112379F032962181621375
:1017D000F9CFEC016CE50E949B02612FCE01DF91F5
:1017E000CF911F910C949B026111F9CF64E472E0D8
:1017F000DF91CF911F910C94D30BCF92DF92EF9298
:10180000FF920F931F93CF93DF938C016B017A01AB
:1018100062E20E949B02E601EC0CFD1CCE15DF0586
:1018200029F06991C8010E94DD0BF8CF62E2C8017E
:10183000DF91CF911F910F91FF90EF90DF90CF90AC
:101840000C949B02DF92EF92FF920F931F93CF9322
:10185000DF9300D01F92CDB7DEB76115710581F41B
:1018600060E070E08FEF9D2D0F900F900F900F9024
:10187000DF91CF911F910F91FF90EF90DF9008952E
:101880007A018B01BA01FC0180810E947802698390
:101890007A838B839C83E981FA81309709F3A6814F
:1018A000B781F80101900020E9F731979F01201BD3
:1018B000310B90E080E0109741F0FD010190002095
:1018C000E9F7CF0101978A1B9B0B2817390769F4A9
:1018D000C801A901400F511F4817590761F0FC01C9
:1018E0003191CF012D913217B9F3B701CE01019695
:1018F0000E943C07D0CF69817A818B81DC80B3CF95
:10190000FC01248125FF06C0009721F00E94220CD3
:10191000CB01089590E080E00895DC0111967C935E
:101920006E93F0E0E0E06115710539F0FB01019084
:101930000020E9F73197E61BF70B1396FC93EE9323
:10194000129715965C934E93149708954F925F9259
:101950006F927F928F929F92AF92BF92CF92DF92BF
:10196000EF92FF920F931F93CF93DF93CDB7DEB724
:10197000A1970FB6F894DEBF0FBECDBF7C018B01DF
:10198000DC0114968C9114978F77883009F488C104
:10199000E8F4843009F444C148F4833009F475C193
:1019A0006BE472E0C8010E94D30BF5C0853009F4E6
:1019B00048C18630A9F78C9160E572E0811102C0C0
:1019C00065E572E0C8010E94D30B45C18C3009F473
:1019D00040C0C8F48A3021F7CD90DD90ED90FC90A6
:1019E000B701A601F7FE0BC06DE2C8010E949B0281
:1019F00044275527BA014C195D096E097F09C801B2
:101A00000E94C50228C1803209F4CFC0803441F65B
:101A10006BE5C8010E949B02F701F080FFEFFF1603
:101A200009F4BEC0D80114968D919C916F2D4596F6
:101A30000E945D027C01B8010E94A60CF701F580AE
:101A4000FFEFFF1609F4ACC06CE2C8010E949B02D4
:101A5000E5CFF70180809180A280B380A501940139
:101A6000C501B4010E94A51F81119ACF20E030E08A
:101A7000A901C501B4010E94A51F882379F0A50121
:101A80009401C501B4010E94E4209B01AC01C50191
:101A9000B4010E94A51F882309F482CF20E030E022
:101AA000A901C501B4010E94A51F87FF08C06DE20E
:101AB000C8010E949B02B7FAB094B7F8B0946E01C7
:101AC000F7E1CF0ED11CB501A401C6010E94AF03FE
:101AD0004F89588D698D7A8DC8010E94C502F9A081
:101AE000FF2091F16B8D7C8D8D8D9E8D4E0121E1BE
:101AF000820E911CEF2C54012AE0422E512C612CB5
:101B0000712CEA94AFEFEA1659F0A30192010E94FA
:101B10009F21605DF40162934F01B901CA01F1CFC9
:101B20008F2D90E0BC0160957095F501E81BF90BD5
:101B300031978EE2808344275527461B570B6A0D49
:101B40007B1DC8010E94B0028F8D98A1892B19F1CD
:101B500065E6C8010E949B02EF8CF8A0C701F7FE62
:101B600008C06DE2C8010E949B02882799278E1940
:101B70009F09F6012AE030E0B9010E948B21805DC7
:101B80008293CB010097C1F7A6014E1B5F0BBF01EB
:101B9000C8010E94B002D80112968D919C915EC03E
:101BA0006DE5C8010E949B02F6CF6BE7C8010E9459
:101BB0009B02F701F080FFEFFF1681F1D801149628
:101BC0008D919C916F2D45960E945D027C01FC01D8
:101BD000A680B78062E2C8010E949B026501D6011F
:101BE0006D916D01662321F0C8010E94DD0BF7CFD6
:101BF00062E2C8010E949B026AE3C8010E949B0244
:101C0000B801C7010E94A60CF701F580FFEFFF168F
:101C100029F06CE2C8010E949B02CDCF6DE7C1CFD5
:101C2000F7016081718141E050E0CE0101960E9490
:101C30008D0C4B815C8169817A81C8010E94FD0B0A
:101C4000AACFED91FC91438150E0BF016C5F7F4FC3
:101C5000C8010E94FD0BF80182819381A1960FB605
:101C6000F894DEBF0FBECDBFDF91CF911F910F91D2
:101C7000FF90EF90DF90CF90BF90AF909F908F90AC
:101C80007F906F905F904F900895ED91FC9143810C
:101C900050E0BF016C5F7F4FC8010E94B002DBCFF4
:101CA0004D915D916D917C91AACECF93DF9300D041
:101CB00000D0CDB7DEB725E233E03A8329831C821A
:101CC0001B829E838D83BE016F5F7F4F4A960E9469
:101CD000A60C26960FB6F894DEBF0FBECDBFDF91DF
:101CE000CF9108950F931F93CF93DF93EC018881D9
:101CF0009981009759F02A813B812617370730F0E8
:101D000081E0DF91CF911F910F9108958B016F5F5B
:101D10007F4F0E94EE22009759F0998388831B839E
:101D20000A832C813D81232B59F7FC011082E8CFD7
:101D300080E0E7CFEF92FF920F931F93CF93DF9353
:101D40006115710541F480E0DF91CF911F910F91F2
:101D5000FF90EF90089541155105B1F07B01EC0122
:101D60000C811D81040F151FB8010E94720E88237B
:101D700051F3288139818C819D81B701820F931F96
:101D80000E94E1231D830C8381E0DECFCF93DF939C
:101D9000EC01EAA1FBA1E80FF91F1282BC016E5F02
:101DA0007F4F81F0FB0101900020E9F73197AF01EF
:101DB000461B570B888199810E949A0E882311F047
:101DC0001BA21AA28AA19BA1DF91CF9108951F9314
:101DD000CF93DF93EC01162F8AA19BA101968097E8
:101DE000B8F48AA19BA19C012F5F3F4F3BA32AA37C
:101DF0008C0F9D1FFC01128321E030E08CA19DA17E
:101E0000820F931F9DA38CA3DF91CF911F91089503
:101E1000CE010E94C60E892B21F330E020E0EECFE8
:101E2000BF92CF92DF92EF92FF920F931F93CF93C7
:101E3000DF93EC016A018B017B01E40EF51EE016D5
:101E4000F106D1F0F801B1908F018AA19BA1019612
:101E5000809760F48AA19BA19C012F5F3F4F3BA319
:101E60002AA38C0F9D1FFC01B282E9CFCE010E94F4
:101E7000C60E892B79F3E3CF4CA15DA14C0D5D1DFE
:101E80005DA34CA3DF91CF911F910F91FF90EF9035
:101E9000DF90CF90BF9008958F929F92AF92BF92A4
:101EA000CF92DF92EF92FF920F931F93CF93DF9326
:101EB000CDB7DEB766970FB6F894DEBF0FBECDBFC5
:101EC0006C018E01095E1F4F78018AE0882E912CEB
:101ED000A12CB12CCB01BA01A50194010E949F2134
:101EE000942F852F605DF80162938F01A901692FFE
:101EF000782F411551056105710561F7A7014E1B4A
:101F00005F0BBF01C6010E94100F66960FB6F894D2
:101F1000DEBF0FBECDBFDF91CF911F910F91FF901C
:101F2000EF90DF90CF90BF90AF909F908F900895EB
:101F3000FB0101900020E9F73197AF01461B570BD9
:101F40000C94100F1F93CF93DF93E0E3F2E0128124
:101F5000112379F0329621816213F9CFEC016CE5FF
:101F60000E94E70E612FCE01DF91CF911F910C945B
:101F7000E70E6111F9CF64E472E0DF91CF911F9118
:101F80000C94980FCF92DF92EF92FF920F931F93D2
:101F9000CF93DF938C016B017A0162E20E94E70E1E
:101FA000E601EC0CFD1CCE15DF0529F06991C80196
:101FB0000E94A20FF8CF62E2C801DF91CF911F917A
:101FC0000F91FF90EF90DF90CF900C94E70E4F921F
:101FD0005F926F927F928F929F92AF92BF92CF92B9
:101FE000DF92EF92FF920F931F93CF93DF93CDB7C2
:101FF000DEB7A1970FB6F894DEBF0FBECDBF7C0150
:102000008B01DC0114968C9114978F77883009F43A
:1020100088C1E8F4843009F444C148F4833009F4F9
:1020200075C16BE472E0C8010E94980FF5C085305D
:1020300009F448C18630A9F78C9160E572E08111FE
:1020400002C065E572E0C8010E94980F45C18C305E
:1020500009F440C0C8F48A3021F7CD90DD90ED90AE
:10206000FC90B701A601F7FE0BC06DE2C8010E940B
:10207000E70E44275527BA014C195D096E097F09FF
:10208000C8010E944C0F28C1803209F4CFC08034AF
:1020900041F66BE5C8010E94E70EF701F080FFEF03
:1020A000FF1609F4BEC0D80196968D919C916F2DB4
:1020B00045960E945D027C01B8010E94E70FF7017E
:1020C000F580FFEFFF1609F4ACC06CE2C8010E9476
:1020D000E70EE5CFF70180809180A280B380A50153
:1020E0009401C501B4010E94A51F81119ACF20E07F
:1020F00030E0A901C501B4010E94A51F882379F031
:10210000A5019401C501B4010E94E4209B01AC012A
:10211000C501B4010E94A51F882309F482CF20E0E5
:1021200030E0A901C501B4010E94A51F87FF08C0C6
:102130006DE2C8010E94E70EB7FAB094B7F8B09408
:102140006E01F7E1CF0ED11CB501A401C6010E94BA
:10215000AF034F89588D698D7A8DC8010E944C0F4D
:10216000F9A0FF2091F16B8D7C8D8D8D9E8D4E01A0
:1021700021E1820E911CEF2C54012AE0422E512CB9
:10218000612C712CEA94AFEFEA1659F0A301920189
:102190000E949F21605DF40162934F01B901CA0161
:1021A000F1CF8F2D90E0BC0160957095F501E81B93
:1021B000F90B31978EE2808344275527461B570B36
:1021C0006A0D7B1DC8010E94100F8F8D98A1892B6D
:1021D00019F165E6C8010E94E70EEF8CF8A0C7016F
:1021E000F7FE08C06DE2C8010E94E70E8827992714
:1021F0008E199F09F6012AE030E0B9010E948B2177
:10220000805D8293CB010097C1F7A6014E1B5F0B47
:10221000BF01C8010E94100FD80194968D919C9126
:102220005EC06DE5C8010E94E70EF6CF6BE7C801FE
:102230000E94E70EF701F080FFEFFF1681F1D80151
:1022400096968D919C916F2D45960E945D027C0122
:10225000FC01A680B78062E2C8010E94E70E65011A
:10226000D6016D916D01662321F0C8010E94A20F75
:10227000F7CF62E2C8010E94E70E6AE3C8010E943C
:10228000E70EB801C7010E94E70FF701F580FFEFE5
:10229000FF1629F06CE2C8010E94E70ECDCF6DE772
:1022A000C1CFF7016081718141E050E0CE0101961C
:1022B0000E948D0C4B815C8169817A81C8010E94EA
:1022C000C20FAACFED91FC91438150E0BF016C5F3A
:1022D0007F4FC8010E94C20FF80184A195A1A19669
:1022E0000FB6F894DEBF0FBECDBFDF91CF911F9127
:1022F0000F91FF90EF90DF90CF90BF90AF909F90A5
:102300008F907F906F905F904F900895ED91FC912A
:10231000438150E0BF016C5F7F4FC8010E94100FE6
:10232000DBCF4D915D916D917C91AACECB01BA012D
:102330000C94EE22CF93DF93EC0188819981009772
:1023400011F00E946522198218821D821C821B8254
:102350001A82DF91CF910895EF92FF920F931F930E
:10236000CF93DF93EC017B018A01BA010E94720EC8
:1023700081110BC0CE010E949A11CE01DF91CF9145
:102380001F910F91FF90EF9008951D830C83B7016B
:10239000888199810E94E123F0CFFC0180819181A5
:1023A000009711F00C9465220895CB010C946522DE
:1023B0008F929F92AF92BF92CF92DF92EF92FF9255
:1023C0000F931F93CF93DF936C018B01DB01599621
:1023D000FC90BFEFFB1621F16F2DC80145960E94BE
:1023E0005D02EC018D81F801818F209709F496C080
:1023F0001C828FEF8D831F821E82D60111966C91F5
:102400006F3F09F49FC0C80145960E945D02FC0120
:10241000F582D6011196FC92BE018F2D9D8084C05D
:102420005B01F5E0AF0EB11CDB01ED90FC90119764
:1024300057968C91882349F0C5010E949D07C62FAD
:10244000D72F209711F0F82ED8CFF801C789908D9B
:10245000C91325C0C03109F461C0CC0F65897689E4
:10246000D701ED91FC91B4E0CB9FA0011124A616F9
:10247000B70609F04BC00190F081E02DBA01C70109
:102480001995009709F44AC020E1F501DC0101909B
:102490000D922A95E1F7F801968B858BC08FD801B4
:1024A0005596CD91DC91569757968C91579721E090
:1024B000280F57962C93B4E08B9FC0011124C80FAE
:1024C000D91F90E1892E203111F48FE0882EE8E0A9
:1024D0008E9EB0011124D701ED91FC910190F08105
:1024E000E02DC70119959B838A83892B09F4812CE0
:1024F00088821982CD2B91F0C5010E949D07C62FBD
:10250000D72FF82E209709F078CF08C00480F581E6
:10251000E02DC7011995009709F0BDCF81E0F801C2
:10252000828360E070E08FEF992DDF91CF911F9152
:102530000F91FF90EF90DF90CF90BF90AF909F9062
:102540008F900895F601F082F18266CF8F929F926C
:10255000AF92BF92CF92DF92EF92FF920F931F93B1
:10256000CF93DF93EC017B01D42E0E948D038C016D
:10257000892B09F050C0CE010E941103863609F460
:1025800057C174F5873229F08B35B1F1823209F0E9
:1025900058C11D821C828A819B81892B81F408810C
:1025A0001981F801608171818FE190E00E94C10A78
:1025B000009719F421E0F80122839B838A83CE01DE
:1025C0000E947D098C01892B31F5CE010E945C0AA5
:1025D000F7012481207825602483918380831BC0A8
:1025E000843709F40DC18B3709F458C08E3609F0D1
:1025F00028C16BE472E00DC1F701848180788064AA
:102600008483E114F10419F08FEF80838183D1106A
:1026100010C005E010E0C801DF91CF911F910F912C
:10262000FF90EF90DF90CF90BF90AF909F908F90F2
:1026300008951A86CE010E948D03009709F085C087
:102640006DE5CE010E9459038111E5CFDA946B85C7
:102650007C85C7010E94D8116115710519F404E049
:1026600010E0D9CF4D2DCE010E94A612009709F09F
:102670006CC0CE010E948D03009709F066C06DE525
:10268000CE010E9459038111C6CF6CE2CE010E9497
:1026900059038111DCCF03E010E0BDCFC7010E94D8
:1026A00092075C01DD2009F4B4CF1A86CE010E94A6
:1026B0008D03009709F049C06DE7CE010E945903D0
:1026C0008111A9CFCC24C394DA941D821C828A8103
:1026D0009B81892B79F4E880F980F7016081718111
:1026E0008FE190E00E94C10A009711F4F701C282C5
:1026F0009B838A83CE010E9411038732E1F08232EC
:10270000D1F0CE010E941103F82E0E948902882385
:1027100011F21A866F2DCE010E944409CE010E944B
:102720001103F82E0E9489028111F3CF8A819B81C7
:10273000892B31F494CFCE010E947D09009729F4B2
:10274000CE010E948D03009711F08C0164CF6AE3E3
:10275000CE010E945903882309F49DCFEA81FB81B1
:102760008C819D81E80FF91F14824B855C856A81FD
:102770007B816C5F7F4FC5010E94220CCB017B01E6
:10278000672BC9F5CE010E945C0A4C016B857C85E4
:10279000C5010E94D8117B016115710509F45FCF55
:1027A000FB01848180688483F4E08F0E911CF70123
:1027B000978286824D2DB701CE010E94A612009706
:1027C00021F6CE010E948D03009709F0BECF6DE780
:1027D000CE010E94590381111ECF6CE2CE010E94EE
:1027E0005903882309F457CFCE010E948D03009727
:1027F00009F46BCFAACF6B857C850E94AC08DACF39
:10280000F701848180788660848381E0808360E53D
:1028100072E0CE01DF91CF911F910F91FF90EF9069
:10282000DF90CF90BF90AF909F908F900C946A03F1
:10283000F7018481807886608483108265E572E088
:10284000E8CFCE010E9411035E01FDE0AF0EB11C86
:10285000D12C9A2CCB2C803374F08A3374F49FE300
:10286000D91699F01A86D394F50181935F01CE01B0
:102870000E941103F0CF8B3291F393ED980F9230B9
:1028800070F3982F9F7D953451F3CD0DD11D1D868A
:10289000B701892D9C2D0E9459058111BCCEFBCE1C
:1028A000EF92FF920F931F93CF93DF936115710502
:1028B00051F4F0E0E0E0CF01DF91CF911F910F9153
:1028C000FF90EF9008957A01EB01FC012481322FF3
:1028D0003F77C9F40E9492078C01009751F3A7013A
:1028E000BE010E94220CFB01309729F7B701C801F5
:1028F0000E94D811FB013097F1F284818F77848395
:10290000D783C683D8CF25FDE7CFD3CFCF92DF9231
:10291000EF92FF920F931F93CF93DF938C017B0174
:10292000DC01CD90DC901197C6014A9691F0129689
:102930006D917C91A6010E945014EC01009749F022
:10294000B6010E94AC088C81807884608C83F98207
:10295000E882D801ED91FC9180E0309719F08281F6
:1029600091E08927DF91CF911F910F91FF90EF9018
:10297000DF90CF900895CF92DF92EF92FF920F9366
:102980001F93CF93DF93CDB7DEB7A7970FB6F89419
:10299000DEBF0FBECDBF6C0180910003909101039B
:1029A000892B09F099C081E090E090930103809316
:1029B00000031BA21AA21DA21CA21FA21EA24AE073
:1029C0008E010F5F1F4FB801C6010E94701FF801F2
:1029D00001900020E9F73197AF01401B510BB8017E
:1029E000CE0182960E94AC111A8219821C821B822F
:1029F0001E821D8240E150E06BE572E0C8010E943A
:102A0000AC114EA15FA16AA17BA1C8010E949A0EE0
:102A1000811103C0C8010E949A1148E050E06CE6A1
:102A200072E0C8010E949A0E811103C0C8010E9481
:102A30009A114D815E8169817A8182EC93E00E94D6
:102A400023010E94CB0BC8010E94CD11CE018296BA
:102A50000E94CD1180E092E09A8389831B821D82BF
:102A60001C82CE0106969F8B8E8B188E84E0898FF8
:102A70008FEF8A8F1F8E84EF91E099A388A31BA309
:102A80000AA385E792E09DA38CA36BE772E0CE01D9
:102A900082960E948614A80168E872E0CE014B96E7
:102AA0000E9450147C01009789F0B8010E948608AA
:102AB000F701848180788A608483C6010D2C000C24
:102AC000AA0BBB0B80839183A283B383C8010E94AE
:102AD000550EC8010E943D0881E090E09093FF02EE
:102AE0008093FE0280910003909101030197B9F455
:102AF0004FE554E068E872E089E794E00E94800CBA
:102B0000009709F47CC00E94C006C816D90609F4D3
:102B100079C082E090E0909301038093000380915C
:102B2000000390910103029781F483E090E0909379
:102B30000103809300030E9417016093F8027093D1
:102B4000F9028093FA029093FB0280910003909126
:102B500001030397C9F40E9417010091F802109134
:102B6000F9022091FA023091FB02601B710B820B7B
:102B7000930B683E73408105910590F084E090E0EE
:102B800090930103809300038091000390910103CF
:102B9000049731F481E090E0909301038093000367
:102BA00085E090E09093FD028093FC028091000309
:102BB00090910103059731F486E090E09093010332
:102BC000809300038091000390910103863091056A
:102BD000F1F487E090E0909301038093000381E09B
:102BE000A7960FB6F894DEBF0FBECDBFDF91CF9191
:102BF0001F910F91FF90EF90DF90CF90089590E09C
:102C000080E083CF8091FC029091FD0284CF0797F2
:102C100021F4109201031092000380E0E1CF2F9283
:102C20003F924F925F926F927F928F929F92AF925C
:102C3000BF92CF92DF92EF92FF920F931F93CF93A9
:102C4000DF93CDB7DEB7E3970FB6F894DEBF0FBEC4
:102C5000CDBF6115710509F4A3C229013A016AA328
:102C60007BA38CA39DA389012115310529F4CE01F5
:102C700082960E94B70826C2D90114968C911497A7
:102C80008F77883009F473C208F05CC0843009F48F
:102C90000AC2D0F5833059F7ED91FC910381EAA087
:102CA000FBA0E114F10409F4E4C04F01B4E08B0E81
:102CB000911CCCA0DDA0B601C7010E94860881143A
:102CC000910409F42DC210E0F601A080B18098862D
:102CD0008F821A870987BE01695F7F4FC6010396FD
:102CE0000E943705009709F412C2DC0112962C915C
:102CF00012972F5F12962C93F7012481207823607E
:102D0000248391838083B5C0853009F4F4C1863073
:102D100009F0ADCFEAA0FBA0E114F10409F4A9C0C9
:102D2000F90110816CA17DA1C7010E948608D7011D
:102D300014968C9114978078866014968C931497CF
:102D40001C9397C08C3009F478C008F58A3009F0DC
:102D50008ECFEAA0FBA0E114F10409F48AC0F901C6
:102D600080809180A280B3806CA17DA1C7010E9468
:102D70008608D70114968C91149780788A601496EF
:102D80008C93F70180829182A282B38272C08032DA
:102D900009F478C0803409F06ACFECA0FDA00AA144
:102DA0001BA10115110589F0B701C8010E94860811
:102DB000D80114968C9114978078806414968C9323
:102DC00014978FEF8C9311968C935C8A4B8A7E8A32
:102DD0006D8A0115110509F44CC0B701C8010E94A4
:102DE000CD08CE0143960E94520729833A834B8334
:102DF0005C836D837E8389819A810097D1F12D81D7
:102E00003E819E878D87388B2F87B701C8010E942E
:102E1000D81178876F83FA86E986BE01635F7F4F9A
:102E2000CE0107960E94E918882319F16D817E81F1
:102E3000CE0101960E943C07DECFEAA0FBA0E11480
:102E4000F104B9F0F90180809180A280B3806CA177
:102E50007DA1C7010E948608D70114968C91149712
:102E600080788C6014968C93F70180829182A28284
:102E7000B382ECA1FDA1309709F492C1828191E067
:102E8000892720C1CCA0DDA0EAA0FBA0B12CA12CF9
:102E9000E114F10441F0B601C7010E948608C701A0
:102EA0000E9492075C01F801848185FF86C0C201FF
:102EB0009F8F8E8F79A268A2A114B104D1F2892BC1
:102EC000C1F2B601C5010E94CD08CE014E960E9406
:102ED00052072B8B3C8B4D8B5E8B6F8B788FC60193
:102EE00003969BAB8AAB8B899C89892B11F22F8827
:102EF000388C8B899C89AD89BE898F839887A987F7
:102F0000BA873C862B8686E0FE013796DE01119655
:102F100001900D928A95E1F786E0FE013196DE017F
:102F20001D9601900D928A95E1F74D845E844114BF
:102F3000510401F1D20114968C911497082E000CC3
:102F4000990B80959095492F441F4427441F16964E
:102F50006D917C9150E0CE0107960E948D0C0F81FF
:102F6000188569847A84EB85FC85FFA7EEA7011597
:102F7000110531F5F12CE12C5BA64AA63DA62CA645
:102F8000FFA2EEA2D9A6C8A62AA53BA54CA55DA581
:102F90006EA17FA188A599A50E940F16C114D10426
:102FA00009F467CFF6018281811163CF6F89788D33
:102FB000CE0143960E943C0796CF90E080E078CF08
:102FC000D50114968C91982F9F77E1F5C5010E9449
:102FD00092074C01892B71F2B601F40180810E94A5
:102FE00078026F83788789879A87C301800F911F42
:102FF00099AB88ABEF80F884E114F10439F1D70183
:103000001696ED91FC91B0E0A0E0309739F0DF0129
:103010000D900020E9F71197AE1BBF0BA615B70561
:1030200059F4D80188A999A9A817B90709F4A4CF18
:103030009D9181919817B1F3B601CE0107960E9438
:103040003C07D8CF85FF96CF4501C6CFAEA5BFA51B
:10305000119781F4B601C4010E94D8117B0161155A
:10306000710509F489CFFB0184818F7784831783ED
:10307000068382CF202F1A8F098F462D7C8E6B8E70
:103080001D8ED6010D911C913A8D5C8D60E08AA950
:103090009BA90E94DE0A8C01892B09F083C081E084
:1030A000F601828369CF6D917C9141E050E0CE01C1
:1030B00001960E948D0CBE016F5F7F4FCE018296FC
:1030C0000E944D0BE3960FB6F894DEBF0FBECDBF46
:1030D000DF91CF911F910F91FF90EF90DF90CF90F4
:1030E000BF90AF909F908F907F906F905F904F9028
:1030F0003F902F900895ED91FC91838190E034965C
:10310000FA83E9839C838B831E821D82D4CFB50111
:10311000C8010E94C10A009759F481E0F601828338
:10312000D70114968C911497807814968C93A1CE25
:103130002F813885DC011496F901AF01421B530B36
:103140004017510718F441914D93F7CFFC01E00F60
:10315000F11F1482D60113962D913C911497FC0116
:103160003183208314969C938E931397C5CDEAA048
:10317000FBA0E114F10409F47CCE8D909D90AD90FC
:10318000BC906CA17DA1C7010E948608F7018481D3
:1031900080788860848380829182A282B38269CEA3
:1031A00080E090CFB601C4010E94D8117B01672B4B
:1031B00009F4E2CED70114968C9114978068149686
:1031C0008C9314970C5F1F4F17961C930E931697B2
:1031D000D3CECF93DF93EC01FB012081318142817B
:1031E0005381688179818A819B810E940F16EA81CF
:1031F000FB8180E0309719F0828191E08927DF918F
:10320000CF910895CB010C94C9211F920F920FB654
:103210000F9211242F933F938F939F93AF93BF935C
:103220008091210390912203A0912303B091240364
:103230003091200323E0230F2D3758F50196A11D6F
:10324000B11D209320038093210390932203A09328
:103250002303B093240380911C0390911D03A0913C
:103260001E03B0911F030196A11DB11D80931C0385
:1032700090931D03A0931E03B0931F03BF91AF91C2
:103280009F918F913F912F910F900FBE0F901F90A4
:10329000189526E8230F0296A11DB11DD2CF1F92CB
:1032A0000F920FB60F9211240BB60F922F933F93EC
:1032B0004F935F936F937F938F939F93AF93BF933E
:1032C000EF93FF9385E293E00E94A101FF91EF91BC
:1032D000BF91AF919F918F917F916F915F914F912E
:1032E0003F912F910F900BBE0F900FBE0F901F902C
:1032F00018951F920F920FB60F9211240BB60F92D2
:103300002F938F939F93EF93FF93E0913503F09169
:1033100036038081E0913B03F0913C0382FD1DC0A8
:10332000908180913E038F5F8F7320913F038217BE
:1033300041F0E0913E03F0E0EB5DFC4F958F809310
:103340003E03FF91EF919F918F912F910F900BBEB4
:103350000F900FBE0F901F9018958081F2CF1F9293
:103360000F920FB60F9211240BB60F922F933F932B
:103370004F935F936F937F938F939F93AF93BF937D
:10338000EF93FF9382EC93E00E94A101FF91EF91F4
:10339000BF91AF919F918F917F916F915F914F916D
:1033A0003F912F910F900BBE0F900FBE0F901F906B
:1033B00018951F920F920FB60F9211240BB60F9211
:1033C0002F938F939F93EF93FF93E091D203F0910C
:1033D000D3038081E091D803F091D90382FD1DC011
:1033E00090818091DB038F5F8F732091DC038217C4
:1033F00041F0E091DB03F0E0EE53FC4F958F8093BA
:10340000DB03FF91EF919F918F912F910F900BBE56
:103410000F900FBE0F901F9018958081F2CFE5E2BC
:10342000F3E01382128248EE53E060E070E04483E0
:1034300055836683778382E292E0918380832DECCB
:1034400030E0358724872CEC30E03787268728EC5E
:1034500030E0318B208B29EC30E0338B228B2AEC4F
:1034600030E0358B248B2EEC30E0378B268B118EA1
:10347000128E138E148EE2ECF3E0138212824483D8
:103480005583668377839183808385EC90E095876D
:10349000848784EC90E09787868780EC90E0918B1E
:1034A000808B81EC90E0938B828B82EC90E0958B0B
:1034B000848B86EC90E0978B868B118E128E138E08
:1034C000148EEFE5F4E080E092E091838083128235
:1034D0001482138284E694E0968B858B178A84E0AD
:1034E000808F8FEF818F168E84EF91E090A3878F6E
:1034F0000895CF93DF93CDB7DEB7CC50D1400FB650
:10350000F894DEBF0FBECDBF789484B5826084BDD1
:1035100084B5816084BD85B5826085BD85B58160D7
:1035200085BD80916E00816080936E001092810055
:103530008091810082608093810080918100816010
:1035400080938100809180008160809380008091D1
:10355000B10084608093B1008091B000816080935D
:10356000B0008091910082608093910080919100E1
:1035700081608093910080919000816080939000A1
:103580008091A10082608093A1008091A100816060
:103590008093A1008091A00081608093A000809121
:1035A00021018260809321018091210181608093BB
:1035B00021018091200181608093200180917A0017
:1035C000846080937A0080917A00826080937A0090
:1035D00080917A00816080937A0080917A0080687F
:1035E00080937A001092C10082EC93E00E94F00078
:1035F00085E293E00E94F0008EED90E08C0F9D1F1D
:103600000596C55FDE4F99838883CB50D1407E01FC
:103610009BEFE91A9EEFF90A23E0422E512C37E086
:10362000632E712C42E0242E312C85E293E00E941F
:103630008101181619060CF0ACC080E092E0C2526D
:10364000DF4F99838883CE5DD040C052DF4F188210
:10365000C05ED040CF51DF4F19821882C15ED0408A
:10366000C55FDE4FA881B981CB50D140CD50DF4F2F
:10367000B983A883C35FD040CB50DF4F1882C55FAA
:10368000D04084E0CA50DF4F8883C65FD0408FEFC0
:10369000C950DF4F8883C75FD040C450DF4F1882C6
:1036A000CC5FD04084EF91E0C350DF4F9983888393
:1036B000CD5FD040CE0182529F4F0E941E08C45061
:1036C000DF4F1882CC5FD040EEEDF0E0EC0FFD1F35
:1036D000FA83E9831C821B821E821D821F8285E27F
:1036E00093E0998788871B86FD87EC874AE0BF01B6
:1036F000665E7F4F8E010F5F1F4FC8010E94A612AA
:103700006C01892B69F48A85882351F0C450DF4FFE
:103710008881CC5FD04083FF03C093E0C92ED12CB9
:103720008B819C81009731F0E981FA816081718100
:103730000E941408C114D10409F4C1C104E411E0C9
:10374000F8016491662341F082EC93E00E94C3018A
:103750000F5F1F4F892BA1F7F601EE0FFF1FEE5EE3
:10376000FD4F608171816115710561F0FB01019070
:103770000020E9F73197AF01461B570B82EC93E02D
:103780000E9423010E94CB0BCE0182529F4F0E94C8
:103790003D0810921B0310921A0380911803909118
:1037A0001903892B09F0C6C080910A0390910B037D
:1037B000892B09F03FC081E090E090930B03809348
:1037C0000A0342E150E06EE972E082EC93E00E946D
:1037D00023010E94CB0B80E092E09A8389831B82B5
:1037E0001D821C82CE0106969F8B8E8B188E84E0E4
:1037F000898F8FEF8A8F1F8E84EF91E099A388A322
:103800008E010F5F1F4F60961FAF0EAF609785E769
:1038100092E062969FAF8EAF629761EB72E0CE014D
:10382000825B9F4F0E948614C8010E94550EC801FA
:103830000E943D0881E090E0909309038093080383
:1038400080910A0390910B03019779F44FE554E0BE
:1038500068E872E089E794E00E94800C892B09F007
:10386000FEC230920B0320920A0380910A039091CA
:103870000B03029771F450920B0340920A030E94CB
:1038800017016093020370930303809304039093E2
:10389000050380910A0390910B030397C9F40E94DA
:1038A000170100910203109103032091040330914A
:1038B0000503601B710B820B930B683E73408105FF
:1038C000910590F0E4E0F0E0F0930B03E0930A033D
:1038D00080910A0390910B03049731F481E090E00A
:1038E00090930B0380930A0385E090E09093070385
:1038F0008093060380910A0390910B03059731F49E
:1039000086E090E090930B0380930A0380910A0372
:1039100090910B038630910509F0AAC270920B03B7
:1039200060920A03809116039091170390931903F4
:10393000809318038091180390911903019741F423
:1039400080911A0390911B0390931903809318039D
:103950003092170320921603809118039091190357
:10396000029721F4509219034092180350921503C4
:10397000409214038091180390911903039731F436
:10398000A4E0B0E0B0931903A0931803E4E0F0E0E2
:10399000F0931303E093120380911803909119039D
:1039A000049779F490E080E00E94BB1481116CC20E
:1039B00080911803909119030196909319038093B5
:1039C00018038091180390911903059741F4809191
:1039D000120390911303909319038093180386E0C8
:1039E00090E09093110380931003809118039091BD
:1039F0001903069721F470921903609218037092CC
:103A00000F0360920E03809118039091190307979A
:103A100079F484EB90E00E94BB1481113AC280914A
:103A2000180390911903019690931903809318033A
:103A30008091180390911903089741F480910E0327
:103A400090910F03909319038093180389E090E0FD
:103A500090930D0380930C038091180390911903A8
:103A6000099731F48AE090E090931903809318034A
:103A700080911803909119030A9741F480911403DF
:103A80009091150390931903809318038091180364
:103A9000909119030B9731F48CE090E09093190307
:103AA0008093180380911803909119030C9721F4C7
:103AB00010921903109218030E943002B6CDAE0185
:103AC00042525F4F65E772E0CA014A960E94800C3D
:103AD0006C01D70111961C921E9213961C921E9295
:103AE000129715961C921E92149750E040E060E4E5
:103AF00072E0C7010E94AC11C114D10449F0F60173
:103B000084818F77843009F463C0853009F468C1FB
:103B1000C654DF4FF982E882CA5BD040C452DF4FFF
:103B200019821882CC5DD040C7010E949A1184E2AC
:103B3000FE01E654FF4FDE01AA56BF4F01900D92E1
:103B40008A95E1F784E2FE01EA56FF4FDE01AE58A6
:103B5000BF4F01900D928A95E1F784E2FE01EE5885
:103B6000FF4FDE01A25BBF4F01900D928A95E1F7F6
:103B700084E2FE01E25BFF4FD80101900D928A952D
:103B8000E1F71EA21DA2CE01825B9F4F0E94C60ECE
:103B90008EED90E08C0F9D1F98A78FA38C569109F6
:103BA0000E94C60EC114D10409F41FC1B801C60198
:103BB0000E94E70FC8010E94C60ECE018A569F4F91
:103BC0000E94C60ECE0186549F4F0E94C60E25C08D
:103BD0006081718141E050E0C8010E948D0C86E057
:103BE000F801DE01A150BF4F01900D928A95E1F7D7
:103BF000C150DF4F68817981CF5FD0406115710579
:103C000009F486CFFB0101900020E9F73197AF015D
:103C1000461B570BC7010E94AC11D70114968D911A
:103C20009C911597892B09F4D7C061E972E08D91B9
:103C30009C910E94D823892B09F0CEC0C252DF4F3D
:103C400088819981CE5DD0409A8389831B821D82B1
:103C50001C826E01B6E0CB0ED11CDF8ACE8A188E94
:103C600084E0898F8FEF8A8F1F8EC8010E941E0803
:103C70001F8E4E01EBE18E0E911CB801C4010E9413
:103C8000AC0860969FAE8EAE609762961FAF0EAF87
:103C900062978EED90E08C0F9D1F4A96E4969FAF41
:103CA0008EAFE4978EED90E08C0F9D1FE6969FAF50
:103CB0008EAFE697BE016E587F4F805991090E94E2
:103CC000E91880916204909163042C813D813093C6
:103CD0006304209362049D838C834091740450910B
:103CE0007504EE89FF8994E04436590709F0D6C07F
:103CF00080E0EC15FD0509F087C0AFE5B4E09F0159
:103D000015964D915D916D917C911897F901819077
:103D10009190A190B1909F0115968D929D92AD9238
:103D2000BC921897CF010497FC01408351836283B2
:103D300073831496F4E0AF36BF0711F780917604D1
:103D4000988D90937604888F80917704998D9093C5
:103D50007704898F809178049A8D909378048A8F64
:103D600080915F049091600429813A8130936004CE
:103D700020935F049A838983809161049B8190934F
:103D800061048B8385E0E9E7F4E0DE01A25BBF4FCD
:103D900001900D928A95E1F785E0FE017B96A9E7F7
:103DA000B4E001900D928A95E1F785E0FE01E25BB7
:103DB000FF4FDE015B9601900D928A95E1F7C801F5
:103DC0000E943D08C350DF4F88819981CD5FD0406C
:103DD00090937F0480937E04C7010E94CD11D4CCC0
:103DE000608171816C5F7F4F09CF6BE472E0C80125
:103DF0000E94980FDFCE5F8B4E8B84E694E0909309
:103E00007504809374049ACF909176048917C8F44E
:103E100094E0899F900111245801A20EB31E215AEB
:103E20003B4FD90115964D915D916D917C911897FD
:103E3000D50115964D935D936D937C9318978F5F85
:103E4000E3CFF0937504E0937404DF8ACE8A76CFD3
:103E5000F0937504E09374045F8B4E8B6FCF809169
:103E600006039091070390930B0380930A03FDCC04
:103E7000079721F410920B0310920A038091180304
:103E800090911903019652CD8091100390911103E6
:103E900094CD80910C0390910D03C6CDEC15FD05DA
:103EA000B9F660E0988D691708F0A5CF84E0689FA7
:103EB00090011124D901A15ABB4F6D01200F311F70
:103EC000F90185819681A781B085F6018583968366
:103ED000A783B0876F5FE6CF8FE594E00C943D0831
:103EE000BB274A3031F4992322F4BDE290958195A5
:103EF0009F4F0C947C1FBB27FB015527AA27880FD7
:103F0000991FAA1FA41710F0A41B83955051B9F74D
:103F1000A05DAA3308F0A95DA193009779F7B111CC
:103F2000B1931192CB010C94951FDC01FC01672F1A
:103F300071917723E1F7329704C07C916D93708380
:103F40006291AE17BF07C8F308950E94E71F08F4F7
:103F500081E00895E89409C097FB3EF49095809520
:103F6000709561957F4F8F4F9F4F9923A9F0F92F3F
:103F700096E9BB279395F695879577956795B795BD
:103F8000F111F8CFFAF4BB0F11F460FF1BC06F5FA3
:103F90007F4F8F4F9F4F16C0882311F096E911C0B5
:103FA000772321F09EE8872F762F05C0662371F0D6
:103FB00096E8862F70E060E02AF09A95660F771FEA
:103FC000881FDAF7880F9695879597F90895990FC6
:103FD0000008550FAA0BE0E8FEEF16161706E807D3
:103FE000F907C0F012161306E407F50798F0621BF4
:103FF000730B840B950B39F40A2661F0232B242BC9
:10400000252B21F408950A2609F4A140A6958FEFE7
:10401000811D811D08950E941E200C948F200E94F6
:10402000812038F00E94882020F0952311F00C9414
:1040300078200C947E2011240C94C3200E94A02090
:1040400070F3959FC1F3950F50E0551F629FF001EB
:10405000729FBB27F00DB11D639FAA27F00DB11D04
:10406000AA1F649F6627B00DA11D661F829F22278D
:10407000B00DA11D621F739FB00DA11D621F839F14
:10408000A00D611D221F749F3327A00D611D231FEA
:10409000849F600D211D822F762F6A2F11249F5738
:1040A00050409AF0F1F088234AF0EE0FFF1FBB1F3B
:1040B000661F771F881F91505040A9F79E3F5105FA
:1040C00080F00C9478200C94C3205F3FE4F3983E7A
:1040D000D4F3869577956795B795F795E7959F5FA4
:1040E000C1F7FE2B880F911D9695879597F9089536
:1040F00097F99F6780E870E060E008959FEF80EC9B
:10410000089500240A94161617061806090608953D
:1041100000240A9412161306140605060895092EA3
:104120000394000C11F4882352F0BB0F40F4BF2B12
:1041300011F460FF04C06F5F7F4F8F4F9F4F089552
:1041400057FD9058440F551F59F05F3F71F0479548
:10415000880F97FB991F61F09F3F79F0879508952D
:10416000121613061406551FF2CF4695F1DF08C04C
:10417000161617061806991FF1CF86957105610569
:1041800008940895E894BB2766277727CB0197F911
:1041900008950E94D420A59F900DB49F900DA49FD8
:1041A000800D911D11240895A29FB001B39FC001FD
:1041B000A39F700D811D1124911DB29F700D811D53
:1041C0001124911D08955058BB27AA270E94FB2057
:1041D0000C948F200E94812038F00E94882020F0CB
:1041E00039F49F3F19F426F40C947E200EF4E095E8
:1041F000E7FB0C947820E92F0E94A02058F3BA170F
:10420000620773078407950720F079F4A6F50C94EC
:10421000C2200EF4E0950B2EBA2FA02D0B01B90190
:1042200090010C01CA01A0011124FF27591B99F02C
:10423000593F50F4503E68F11A16F040A22F232F38
:10424000342F4427585FF3CF469537952795A79588
:10425000F0405395C9F77EF41F16BA0B620B730B2F
:10426000840BBAF09150A1F0FF0FBB1F661F771FA0
:10427000881FC2F70EC0BA0F621F731F841F48F455
:10428000879577956795B795F7959E3F08F0B0CFDE
:104290009395880F08F09927EE0F979587950895C5
:1042A0000E9457216894B1110C94C32008950E9474
:1042B000A82088F09F5798F0B92F9927B751B0F0F0
:1042C000E1F0660F771F881F991F1AF0BA95C9F79A
:1042D00014C0B13091F00E94C220B1E008950C9456
:1042E000C220672F782F8827B85F39F0B93FCCF309
:1042F000869577956795B395D9F73EF49095809517
:10430000709561957F4F8F4F9F4F08950E94E71FD3
:1043100008F48FEF0895AA1BBB1B51E107C0AA1F29
:10432000BB1FA617B70710F0A61BB70B881F991F56
:104330005A95A9F780959095BC01CD010895A1E209
:104340001A2EAA1BBB1BFD010DC0AA1FBB1FEE1F0F
:10435000FF1FA217B307E407F50720F0A21BB30B5A
:10436000E40BF50B661F771F881F991F1A9469F7D6
:1043700060957095809590959B01AC01BD01CF0132
:104380000895EE0FFF1F881F8BBF0790F691E02D59
:1043900019940F931F93CF93DF938230910510F4FC
:1043A00082E090E0E0918204F091830430E020E02C
:1043B000B0E0A0E0309799F42115310509F44AC026
:1043C000281B390B24303105D8F58A819B81611572
:1043D000710589F1FB0193838283FE0111C0408145
:1043E00051810281138148175907E0F04817590796
:1043F00099F4109761F012960C93129713961C93F0
:104400003296CF01DF91CF911F910F9108950093C4
:10441000820410938304F4CF2115310551F0421723
:10442000530738F0A901DB019A01BD01DF01F80152
:10443000C1CFEF01F9CF9093830480938204CDCF55
:10444000FE01E20FF31F81939193225031093983CA
:104450002883D7CF2091800430918104232B41F40D
:10446000209104023091050230938104209380044E
:1044700020910202309103022115310541F42DB73C
:104480003EB74091060250910702241B350BE09184
:104490008004F0918104E217F307A0F42E1B3F0B78
:1044A0002817390778F0AC014E5F5F4F24173507A6
:1044B00048F04E0F5F1F5093810440938004819316
:1044C00091939FCFF0E0E0E09CCFCF93DF930097F4
:1044D000E9F0FC01329713821282A0918204B0911C
:1044E0008304ED0130E020E01097A1F420813181B8
:1044F000820F931F2091800430918104281739077F
:1045000009F061C0F0938104E0938004DF91CF91C2
:104510000895EA01CE17DF07E8F54A815B819E0125
:1045200041155105B1F7E901FB83EA83499159919E
:10453000C40FD51FEC17FD0761F4808191810296AD
:10454000840F951FE90199838883828193819B83DE
:104550008A83F0E0E0E012968D919C91139700978A
:10456000B9F52D913C911197CD010296820F931FC1
:1045700020918004309181042817390739F630974B
:1045800051F51092830410928204B0938104A09399
:104590008004BCCFD383C28340815181840F951F97
:1045A000C817D90761F44E5F5F4F88819981480F22
:1045B000591F518340838A819B8193838283211574
:1045C000310509F0B0CFF0938304E09382049ECFCD
:1045D000FD01DC01C0CF13821282D7CF4F925F92D0
:1045E0006F927F928F929F92AF92BF92CF92DF9203
:1045F000EF92FF920F931F93CF93DF938C0100975D
:1046000099F4CB01DF91CF911F910F91FF90EF9023
:10461000DF90CF90BF90AF909F908F907F906F90E2
:104620005F904F900C94C921FC01E60FF71F9C018D
:1046300022503109E217F30708F4AEC0D901CD9139
:10464000DC911197C617D70720F1C530D10578F056
:10465000CE0104978617970750F0C61BD70B2297F9
:10466000C193D1936D937C93CF010E946522C801C1
:10467000DF91CF911F910F91FF90EF90DF90CF903E
:10468000BF90AF909F908F907F906F905F904F9072
:1046900008955B01AC1ABD0A4C018C0E9D1EA091C1
:1046A0008204B0918304512C412CF12CE12C109701
:1046B00031F580918004909181048815990509F065
:1046C0005CC04616570608F058C0809102029091CF
:1046D0000302009741F48DB79EB7409106025091B6
:1046E0000702841B950BE817F90708F055C0F093F3
:1046F0008104E0938004F90171836083B8CF8D91C8
:104700009C91119712966C90129713967C90139728
:10471000A815B90559F56C0142E0C40ED11CCA14A4
:10472000DB0420F1AC014A195B09DA0112961597F6
:1047300080F06282738251834083D9016D937C93B0
:10474000E114F10471F0D7011396FC93EE931297E4
:104750008ECF22968C0F9D1FF90191838083F301E8
:10476000EFCFF0938304E093820481CF481659067B
:1047700008F42C017D01D3019ACFCB010E94C921FD
:104780007C01009749F0AE01B8010E94CF23C80117
:104790000E94652287016BCF10E000E068CFFB012B
:1047A000DC0102C001900D9241505040D8F70895AD
:1047B000FB01DC018D91019080190110D9F3990B57
:1047C0000895FB01DC0101900D920020E1F70895AE
:1047D00010E0CCEBD0E000E006C0802FFE010E948C
:1047E000C1212196011DCD3BD10780E00807A9F723
:0447F000F894FFCF6B
:1047F4000C02000084048000000000000219D5119E
:104804009611BC02BF02CA02DA02E702F0020000FB
:104814000000C30123015001100281015F017301F3
:104824002F2F22225C5C6208660C6E0A720D7409DA
:10483400000D0A005C7530303030006E756C6C0011
:10484400747275650066616C7365004D6F76696E90
:104854006720736572766F20746F2000206465672B
:104864007265657300746F70696300736572766F47
:104874002F7461726765742D706F736974696F6EDC
:1048840000736572766F2F73746174757300496E6B
:10489400697469616C697A696E6720736572766F91
:1048A40000736572766F2F696E6974004F6B0045F3
:1048B4006D707479496E70757400496E636F6D70B4
:1048C4006C657465496E70757400496E76616C69C7
:1048D40064496E707574004E6F4D656D6F7279002A
:0848E400546F6F44656570001C
:00000001FF
